:100000000C9462000C948A000C948A000C948A0070
:100010000C948A000C948A000C948A000C948A0038
:100020000C948A000C948A000C948A000C948A0028
:100030000C948A000C948A000C948A000C948A0018
:100040000C9499040C948A000C9467040C94410459
:100050000C948A000C948A000C948A000C948A00F8
:100060000C948A000C948A000000000024002700F1
:100070002A0000000000250028002B0000000000DE
:1000800023002600290004040404040404040202DA
:100090000202020203030303030301020408102007
:1000A0004080010204081020010204081020000012
:1000B0000008000201000003040700000000000027
:1000C0000000E30411241FBECFEFD8E0DEBFCDBF98
:1000D00022E0AEE4B1E001C01D92A934B207E1F71D
:1000E00011E0A0E0B1E0E2E6F3E102C005900D927C
:1000F000AE34B107D9F710E0C2E6D0E004C02197D2
:10010000FE010E94A909C136D107C9F70E94220544
:100110000C94AF090C940000AF92BF92CF92DF9283
:10012000EF92FF920F931F93CF93DF936C017B01AC
:100130008B01040F151FEB015E01AE18BF08C0173D
:10014000D10759F06991D601ED91FC910190F081B0
:10015000E02DC6010995892B79F7C501DF91CF9173
:100160001F910F91FF90EF90DF90CF90BF90AF90D5
:100170000895FC01538D448D252F30E0842F90E0AD
:10018000821B930B541710F0CF9608950197089592
:10019000FC01918D828D981761F0A28DAE0FBF2F5B
:1001A000B11D5D968C91928D9F5F9F73928F90E0B1
:1001B00008958FEF9FEF0895FC01918D828D981720
:1001C00031F0828DE80FF11D858D90E008958FEF5D
:1001D0009FEF0895FC01918D228D892F90E0805C26
:1001E0009F4F821B91098F739927089586E691E0AE
:1001F0000E94EA0021E0892B09F420E0822F089573
:1002000080E090E0892B29F00E94F60081110C9487
:1002100000000895FC01A48DA80FB92FB11DA35AA9
:10022000BF4F2C91848D90E001968F739927848F16
:10023000A689B7892C93A089B1898C918370806439
:100240008C93938D848D981306C00288F389E02DDA
:1002500080818F7D80830895EF92FF920F931F938B
:10026000CF93DF93EC0181E0888F9B8D8C8D981369
:100270001AC0E889F989808185FF15C09FB7F89475
:10028000EE89FF896083E889F989808183708064C1
:1002900080839FBF81E090E0DF91CF911F910F910C
:1002A000FF90EF900895F62E0B8D10E00F5F1F4F1B
:1002B0000F731127E02E8C8D8E110CC00FB607FC2A
:1002C000FACFE889F989808185FFF5CFCE010E94B8
:1002D0000A01F1CFEB8DEC0FFD2FF11DE35AFF4F1B
:1002E000F0829FB7F8940B8FEA89FB898081806246
:1002F000CFCFCF93DF93EC01888D8823B9F0AA8903
:10030000BB89E889F9898C9185FD03C0808186FDD0
:100310000DC00FB607FCF7CF8C9185FFF2CF80811F
:1003200085FFEDCFCE010E940A01E9CFDF91CF9189
:100330000895833081F028F4813099F08230A9F05B
:1003400008958730A9F08830C9F08430B1F48091E5
:1003500080008F7D03C0809180008F778093800024
:10036000089584B58F7784BD089584B58F7DFBCFC4
:100370008091B0008F778093B00008958091B00095
:100380008F7DF9CFCF93DF93282F30E0F901E2552D
:10039000FF4F8491F901E656FF4FD491F901EA57D6
:1003A000FF4FC491CC23A1F081110E949901EC2F41
:1003B000F0E0EE0FFF1FE458FF4FA591B491EC91D0
:1003C000ED2381E090E009F480E0DF91CF91089582
:1003D00080E090E0FACF1F93CF93DF93282F30E097
:1003E000F901E255FF4F8491F901E656FF4FD49190
:1003F000F901EA57FF4FC491CC23A9F0162F8111C0
:100400000E949901EC2FF0E0EE0FFF1FEE58FF4F16
:10041000A591B4918FB7F894EC91111108C0D095C3
:10042000DE23DC938FBFDF91CF911F910895DE2BE8
:10043000F8CFCF93DF9390E0FC01E656FF4F249175
:100440008A579F4FFC0184918823D1F090E0880F58
:10045000991FFC01E859FF4FA591B491FC01EE589A
:10046000FF4FC591D491623071F49FB7F8943C91DD
:10047000822F809583238C93E8812E2B28839FBF26
:10048000DF91CF9108958FB7F894EC912E2B2C9398
:100490008FBFF6CF8E3008F08E50877080648093C7
:1004A0007C0080917A00806480937A0080917A0049
:1004B00086FDFCCF809178009091790008953FB738
:1004C000F8948091530190915401A0915501B091FD
:1004D000560126B5A89B05C02F3F19F00196A11D16
:1004E000B11D3FBFBA2FA92F982F8827BC01CD017E
:1004F000620F711D811D911D42E0660F771F881FDD
:10050000991F4A95D1F708958F929F92AF92BF920B
:10051000CF92DF92EF92FF926B017C010E945F020B
:100520004B015C01C114D104E104F104B9F00E9453
:100530005F02681979098A099B09683E7340810541
:10054000910580F321E0C21AD108E108F10888EE94
:10055000880E83E0981EA11CB11CE4CFFF90EF90A1
:10056000DF90CF90BF90AF909F908F9008952FB75E
:10057000F89460914F0170915001809151019091D8
:1005800052012FBF08958F929F92AF92BF92CF9248
:10059000DF92EF92FF926B017C010E94B7024B0148
:1005A0005C01C80CD91CEA1CFB1C0E94B702681530
:1005B00079058A059B0528F0C616D706E806F906D0
:1005C000A0F7FF90EF90DF90CF90BF90AF909F90FB
:1005D0008F9008958F929F92AF92BF92CF92DF92A9
:1005E000EF92FF92811135C00E94B702C0900502C0
:1005F000D0900602E0900702F09008029B01AC0147
:100600002C193D094E095F0969017A0131E2C316CF
:10061000D104E104F104E8F40E94B7024B015C014B
:10062000DC01CB018C199D09AE09BF096C017D016C
:1006300091E2C90ED11CE11CF11C0E94B7026815A1
:1006400079058A059B0528F0C616D706E806F9063F
:10065000A0F70E94B7026093050270930602809390
:1006600007029093080281E0FF90EF90DF90CF9017
:10067000BF90AF909F908F9008950E94B7026093B3
:10068000090270930A0280930B0290930C02089562
:10069000CF93DF93C3E0D2E084EF91E0A0E0B0E03D
:1006A0008E879F87A88BB98B1A8A1B8A1C8A1D8A02
:1006B0008E819F81A885B9858A879B87AC87BD87F6
:1006C0000E94B7026E837F8388879987DF91CF91DD
:1006D0000895FC0101900020E9F73197AF01481B14
:1006E000590BBC0186E691E00C948C008F929F928E
:1006F000AF92BF920F931F93CF93DF93CDB7DEB727
:10070000A1970FB6F894DEBF0FBECDBF19A242303D
:1007100008F44AE08E010F5D1F4F842E912CB12CFE
:10072000A12CA50194010E948709E62FB901CA01F5
:10073000EA30F4F4E05DD801EE938D01232B242BF5
:10074000252B79F790E080E0109719F0CD010E94F9
:100750006903A1960FB6F894DEBF0FBECDBFDF913F
:10076000CF911F910F91BF90AF909F908F90089560
:10077000E95CE1CF0C94690388E191E00E94690390
:100780008BE491E00C946903CF92DF92EF92FF9299
:10079000CF93DF936C01990FEE08FF08F7FE19C0A5
:1007A0006DE286E691E00E942C01EC016627772736
:1007B000CB016C197D098E099F094AE00E947603DE
:1007C0008C0F9D1FDF91CF91FF90EF90DF90CF9026
:1007D00008954AE0C701B601DF91CF91FF90EF90F5
:1007E000DF90CF900C947603CF92DF92EF92FF923E
:1007F000CF93DF93C82F0E94B7026B017C018FE17A
:1008000091E00E94BA036C2F70E090E080E04AE033
:100810000E94760386E291E00E94BA034AE0C70193
:10082000B6010E94760388E291E00E94BA03C3E019
:10083000D2E08E819F81A885B985A7019601281BEA
:10084000390B4A0B5B0BCA01B9014AE00E947603DF
:1008500088E291E00E94BA036E817F818885998544
:10086000CA84DB84EC84FD846C197D098E099F09A0
:100870004AE0DF91CF91FF90EF90DF90CF900C9402
:1008800076031F920F920FB60F9211242F933F936E
:100890004F935F936F937F938F939F93AF93BF9388
:1008A000EF93FF9386E691E00E940A01FF91EF919A
:1008B000BF91AF919F918F917F916F915F914F9178
:1008C0003F912F910F900FBE0F901F9018951F9280
:1008D0000F920FB60F9211242F938F939F93EF9344
:1008E000FF93E0917601F09177018081E0917C01A6
:1008F000F0917D0182FD1BC0908180917F018F5F0F
:100900008F7320918001821741F0E0917F01F0E028
:10091000EA59FE4F958F80937F01FF91EF919F9150
:100920008F912F910F900FBE0F901F90189580817F
:10093000F4CF1F920F920FB60F9211242F933F9373
:100940008F939F93AF93BF9380914F0190915001EC
:10095000A0915101B091520130914E0123E0230F3B
:100960002D3758F50196A11DB11D20934E0180939E
:100970004F0190935001A0935101B0935201809187
:10098000530190915401A0915501B09156010196E7
:10099000A11DB11D8093530190935401A093550163
:1009A000B0935601BF91AF919F918F913F912F913D
:1009B0000F900FBE0F901F90189526E8230F0296F8
:1009C000A11DB11DD2CFE6E6F1E01382128288EEBE
:1009D00093E0A0E0B0E084839583A683B7838AE0A8
:1009E00091E09183808385EC90E09587848784EC07
:1009F00090E09787868780EC90E0918B808B81ECEC
:100A000090E0938B828B82EC90E0958B848B86ECCC
:100A100090E0978B868B118E128E138E148EE3E0EE
:100A2000F2E01682178210861186128613861486CB
:100A3000158616861786108A118A128A138A148AD6
:100A4000158A0895789484B5826084BD84B58160E8
:100A500084BD85B5826085BD85B5816085BD809189
:100A60006E00816080936E00109281008091810001
:100A700082608093810080918100816080938100F9
:100A8000809180008160809380008091B1008460BB
:100A90008093B1008091B00081608093B00080911C
:100AA0007A00846080937A0080917A0082608093DB
:100AB0007A0080917A00816080937A0080917A0038
:100AC000806880937A001092C100109245021092C3
:100AD00046021092470210924802109205021092AC
:100AE0000602109207021092080268EB7BE080E099
:100AF00090E00E94C30260ED77E080E090E00E9409
:100B00008402E0917601F091770182E08083E091A8
:100B10007201F09173011082E0917401F0917501FE
:100B200080E1808310927E01E0917A01F0917B0157
:100B300086E08083E0917801F09179018081806185
:100B40008083E0917801F0917901808188608083D1
:100B5000E0917801F0917901808180688083E09153
:100B60007801F091790180818F7D80830E94B702A6
:100B70006093050270930602809307029093080227
:100B80008AE291E00E94BA036AE070E080E090E0BF
:100B90000E94C30281E08093190280E00E94EA0271
:100BA0008823F1F08CE391E00E94BA0383E491E0A2
:100BB0000E94BA0383E491E00E94BA0383E491E0C7
:100BC0000E94BA0383E491E00E94BA0385E491E0B5
:100BD0000E94BA036AE070E080E090E00E94C302E5
:100BE00062E08DE00E94190262E08CE00E9419022E
:100BF00062E08BE00E94190262E08AE00E94190222
:100C000061E089E00E94190261E088E00E94190217
:100C100061E087E00E94190261E086E00E9419020B
:100C200061E085E00E94190261E084E00E941902FF
:100C300061E083E00E94190261E082E00E941902F3
:100C400061E089E00E94EB0161E088E00E94EB0135
:100C500060E087E00E94EB0161E086E00E94EB012A
:100C600061E085E00E94EB0161E084E00E94EB011D
:100C700060E083E00E94EB018EE00E944A029093C4
:100C8000600180935F01853691055CF061E085E04D
:100C90000E94EB0161E089E00E94EB0181E080931A
:100CA00001018FE00E944A0290935E0180935D01F2
:100CB000853691050CF465C061E084E00E94EB018B
:100CC00061E088E00E94EB0181E08093020168EE20
:100CD00073E080E090E00E94840261E086E00E9480
:100CE000EB0160E082E00E94EB0181E08093030170
:100CF0008093050180930401AA24A39400E010E0EE
:100D0000BB24B394C1E0D0E00E94B702C09062015E
:100D1000D0906301E0906401F09065016C197D0949
:100D20008E099F09663971058105910508F49FC0F8
:100D30000E94B70260936201709363018093640123
:100D40009093650161E070E080E090E00E94C30252
:100D50000E94B70260930502709306028093070217
:100D6000909308028CE391E00E94BA0383E491E03F
:100D70000E94BA03812C912CC12CD12C760120E049
:100D80001DC080910101882309F4A1CF61E083E0B7
:100D90000E94EB0161E087E00E94EB0181E080931B
:100DA0005C0195CF81E0C816D104E104F10439F368
:100DB0008C2D0E94C20121E0892B09F3822F082C7F
:100DC00001C0880F0A94EAF7982A839488E088166D
:100DD00031F08DE0C816D104E104F10469F4692D05
:100DE00070E090E080E04AE00E94760388E291E0C3
:100DF0000E94BA03812C912C61E070E080E090E0C9
:100E00000E94C3028FEFC81AD80AE80AF80A8EE0D7
:100E1000C816D104E104F10429F661E070E080E035
:100E200090E00E94C30283E491E00E94BA03F12C97
:100E30008F2D0E944A020E94C40388E291E00E9422
:100E4000BA03F39486E0F812F3CF83E491E00E94B2
:100E5000BA0383E491E00E94BA0385E491E00E9422
:100E6000BA0361E070E080E090E00E94C3026CE2AF
:100E700071E080E090E00E9484028AE00E94C2015A
:100E800021E0009709F420E020936101892B09F00B
:100E900032C280910501882339F0809104018A25AE
:100EA0008093040110920501809104018093030155
:100EB0000E94480380E00E94EA02882309F44FC0A0
:100EC00081E00E94F40383E491E00E94BA038091E0
:100ED000030190E00E94C40383E491E00E94BA03FE
:100EE0008091040190E00E94C40383E491E00E9499
:100EF000BA038091610190E00E94C40383E491E011
:100F00000E94BA0380915F01909160010E94C40326
:100F100083E491E00E94BA0380915D0190915E01AB
:100F20000E94C40383E491E00E94BA0380915C01B3
:100F300090E00E94C40383E491E00E94BA03809190
:100F4000020190E00E94C40383E491E00E94BA038E
:100F50008091010190E00E94C4030E94BC0362E002
:100F600070E080E090E00E94C3020E943D03609127
:100F7000030186E00E94EB018BE00E94C20121E0A8
:100F8000009709F420E020936101892B09F0B6C194
:100F900080915B01882339F080915A018A258093E2
:100FA0005A0110925B0180915A0180935C018CE0A0
:100FB0000E94C20121E0892B09F420E02093610105
:100FC0000E94480380E00E94EA028823B9F084E08E
:100FD0000E94F40383E491E00E94BA0380915C01D3
:100FE00090E00E94C40383E491E00E94BA038091E0
:100FF0005A0190E00E94C4030E94BC0362E070E0CA
:1010000080E090E00E94C3020E943D038091610154
:10101000811177C180910001882339F080915901B5
:101020008A258093590110920001F0905901F092A5
:1010300002016F2D88E00E94EB016F2D84E00E9479
:10104000EB018DE00E94C20121E0009709F420E04D
:1010500020936101892B09F057C1809158018823A1
:1010600039F0809157018A258093570110925801D9
:10107000F0905701F09201018EE00E944A028536FD
:101080009105BCF1D0936001C0935F018FE00E9495
:101090004A028536910594F1D0935E01C0935D01BB
:1010A00080910301882309F443C080915F019091EE
:1010B0006001892B41F180915D0190915E01892B46
:1010C00061F080915C01882341F060E087E00E943C
:1010D000EB0160E083E00E94EB010115110509F4CA
:1010E00013CE0E94F600882309F40ECE0E94000061
:1010F0000BCE1092600110925F01C8CF10925E017A
:1011000010925D01CDCF61E089E00E94EB0164E6C1
:1011100070E080E090E00E94840260E089E00E943C
:10112000EB0164E670E080E090E00E948402C9CFA9
:101130006F2D89E00E94EB010E94480380E00E942D
:10114000EA028823A1F182E00E94F40383E491E0A3
:101150000E94BA038091010190E00E94C40383E4DD
:1011600091E00E94BA038091020190E00E94C403C2
:1011700083E491E00E94BA0380915C0190E00E94B8
:10118000C40383E491E00E94BA0380915F019091CF
:1011900060010E94C40383E491E00E94BA0380913D
:1011A0005D0190915E010E94C4030E94BC0362E055
:1011B00070E080E090E00E94C3020E943D03E09056
:1011C00001016E2D85E00E94EB01F0905C016F2D16
:1011D00087E00E94EB016F2D83E00E94EB01FF206E
:1011E00009F459C080915F0190916001019779F5F0
:1011F000EE2069F18091020181117AC00E944803BA
:1012000080E00E94EA028823C1F083E00E94F40398
:1012100083E491E00E94BA0380915F0190916001A4
:101220000E94C40383E491E00E94BA03809101010B
:1012300090E00E94C4030E94BC0362E070E080E082
:1012400090E00E94C3020E943D03B0925C01809135
:101250005F0190916001892BF1F410925C0160E0D4
:1012600087E00E94EB0160E083E00E94EB0161E017
:1012700089E00E94EB0164E670E080E090E00E946B
:10128000840260E089E00E94EB0164E670E080E0A7
:1012900090E00E9484028091010181111ECF109282
:1012A0005C010E94480380E00E94EA028823B9F0B2
:1012B00085E00E94F40383E491E00E94BA038091E8
:1012C000010190E00E94C40383E491E00E94BA030C
:1012D00080915C0190E00E94C4030E94BC0362E024
:1012E00070E080E090E00E94C3020E943D03EDCEDA
:1012F00010920201ACCFB0920501D6CDB0925B0145
:1013000052CEB092000191CEB0925801B1CEA1E27E
:101310001A2EAA1BBB1BFD010DC0AA1FBB1FEE1F6F
:10132000FF1FA217B307E407F50720F0A21BB30BBA
:10133000E40BF50B661F771F881F991F1A9469F736
:1013400060957095809590959B01AC01BD01CF0192
:101350000895EE0FFF1F0590F491E02D0994F89485
:02136000FFCFBD
:10136200010101010101000000002C018C00B90003
:101372007901EA00C800DC005F564D445045005632
:101382004D4450455F003A323A00564D4450565F44
:10139200317C315F564D4450560D0A00564D445033
:0E13A200525F007C005F564D4450520D0A0011
:107E0000112484B714BE81FFF0D085E080938100F7
:107E100082E08093C00088E18093C10086E0809377
:107E2000C20080E18093C4008EE0C9D0259A86E02C
:107E300020E33CEF91E0309385002093840096BBD3
:107E4000B09BFECF1D9AA8958150A9F7CC24DD24C4
:107E500088248394B5E0AB2EA1E19A2EF3E0BF2EE7
:107E6000A2D0813461F49FD0082FAFD0023811F036
:107E7000013811F484E001C083E08DD089C08234E0
:107E800011F484E103C0853419F485E0A6D080C0E4
:107E9000853579F488D0E82EFF2485D0082F10E0AE
:107EA000102F00270E291F29000F111F8ED06801E7
:107EB0006FC0863521F484E090D080E0DECF843638
:107EC00009F040C070D06FD0082F6DD080E0C81688
:107ED00080E7D80618F4F601B7BEE895C0E0D1E017
:107EE00062D089930C17E1F7F0E0CF16F0E7DF06D8
:107EF00018F0F601B7BEE89568D007B600FCFDCFD4
:107F0000A601A0E0B1E02C9130E011968C91119780
:107F100090E0982F8827822B932B1296FA010C0160
:107F200087BEE89511244E5F5F4FF1E0A038BF0790
:107F300051F7F601A7BEE89507B600FCFDCF97BE46
:107F4000E89526C08437B1F42ED02DD0F82E2BD052
:107F50003CD0F601EF2C8F010F5F1F4F84911BD097
:107F6000EA94F801C1F70894C11CD11CFA94CF0C13
:107F7000D11C0EC0853739F428D08EE10CD085E9AC
:107F80000AD08FE07ACF813511F488E018D01DD067
:107F900080E101D065CF982F8091C00085FFFCCF94
:107FA0009093C60008958091C00087FFFCCF809118
:107FB000C00084FD01C0A8958091C6000895E0E648
:107FC000F0E098E1908380830895EDDF803219F02E
:107FD00088E0F5DFFFCF84E1DECF1F93182FE3DFCA
:107FE0001150E9F7F2DF1F91089580E0E8DFEE27F6
:047FF000FF270994CA
:027FFE00040479
:0400000300007E007B
:00000001FF