:100000000C9462000C948A000C948A000C948A0070
:100010000C948A000C948A000C948A000C948A0038
:100020000C948A000C948A000C948A000C948A0028
:100030000C948A000C948A000C948A000C948A0018
:100040000C9426040C948A000C94F4030C94CE03B4
:100050000C948A000C948A000C948A000C948A00F8
:100060000C948A000C948A000000000024002700F1
:100070002A0000000000250028002B0000000000DE
:1000800023002600290004040404040404040202DA
:100090000202020203030303030301020408102007
:1000A0004080010204081020010204081020000012
:1000B0000008000201000003040700000000000027
:1000C0000000700411241FBECFEFD8E0DEBFCDBF0B
:1000D00022E0ACE4B1E001C01D92AF33B207E1F71A
:1000E00011E0A0E0B1E0E4E7F0E102C005900D927C
:1000F000AC34B107D9F710E0C2E6D0E004C02197D4
:10010000FE010E943208C136D107C9F70E94AF0430
:100110000C9438080C940000ECE5F1E0A089B1895A
:1001200082E08C93A485B5851C92A685B7858FEC5B
:100130008C93108EA489B58986E08C93A289B389AB
:100140008C9180618C93A289B3898C9188608C9307
:10015000A289B3898C9180688C930288F389E02D01
:1001600080818F7D80830895AF92BF92CF92DF927E
:10017000EF92FF920F931F93CF93DF936C017B015C
:100180008B01040F151FEB015E01AE18BF08C017ED
:10019000D10759F06991D601ED91FC910190F08160
:1001A000E02DC6010995892B79F7C501DF91CF9123
:1001B0001F910F91FF90EF90DF90CF90BF90AF9085
:1001C0000895FC01538D448D252F30E0842F90E05D
:1001D000821B930B541710F0CF9608950197089542
:1001E000FC01918D828D981761F0A28DAE0FBF2F0B
:1001F000B11D5D968C91928D9F5F9F73928F90E061
:1002000008958FEF9FEF0895FC01918D828D9817CF
:1002100031F0828DE80FF11D858D90E008958FEF0C
:100220009FEF0895FC01918D228D892F90E0805CD5
:100230009F4F821B91098F73992708958CE591E058
:100240000E94120121E0892B09F420E0822F0895F9
:1002500080E090E0892B29F00E941E0181110C940E
:1002600000000895FC01A48DA80FB92FB11DA35A59
:10027000BF4F2C91848D90E001968F739927848FC6
:10028000A689B7892C93A089B1898C9183708064E9
:100290008C93938D848D981306C00288F389E02D8A
:1002A00080818F7D80830895EF92FF920F931F933B
:1002B000CF93DF93EC0181E0888F9B8D8C8D981319
:1002C0001AC0E889F989808185FF15C09FB7F89425
:1002D000EE89FF896083E889F98980818370806471
:1002E00080839FBF81E090E0DF91CF911F910F91BC
:1002F000FF90EF900895F62E0B8D10E00F5F1F4FCB
:100300000F731127E02E8C8D8E110CC00FB607FCD9
:10031000FACFE889F989808185FFF5CFCE010E9467
:100320003201F1CFEB8DEC0FFD2FF11DE35AFF4FA2
:10033000F0829FB7F8940B8FEA89FB8980818062F5
:10034000CFCFCF93DF93EC01888D8823B9F0AA89B2
:10035000BB89E889F9898C9185FD03C0808186FD80
:100360000DC00FB607FCF7CF8C9185FFF2CF8081CF
:1003700085FFEDCFCE010E943201E9CFDF91CF9111
:100380000895833081F028F4813099F08230A9F00B
:1003900008958730A9F08830C9F08430B1F4809195
:1003A00080008F7D03C0809180008F7780938000D4
:1003B000089584B58F7784BD089584B58F7DFBCF74
:1003C0008091B0008F778093B00008958091B00045
:1003D0008F7DF9CFCF93DF93282F30E0F901E255DD
:1003E000FF4F8491F901E656FF4FD491F901EA5786
:1003F000FF4FC491CC23A1F081110E94C101EC2FC9
:10040000F0E0EE0FFF1FE458FF4FA591B491EC917F
:10041000ED2381E090E009F480E0DF91CF91089531
:1004200080E090E0FACF1F93CF93DF93282F30E046
:10043000F901E255FF4F8491F901E656FF4FD4913F
:10044000F901EA57FF4FC491CC23A9F0162F81116F
:100450000E94C101EC2FF0E0EE0FFF1FEE58FF4F9E
:10046000A591B4918FB7F894EC91111108C0D09573
:10047000DE23DC938FBFDF91CF911F910895DE2B98
:10048000F8CFCF93DF9390E0FC01E656FF4F249125
:100490008A579F4FFC0184918823D1F090E0880F08
:1004A000991FFC01E859FF4FA591B491FC01EE584A
:1004B000FF4FC591D491623071F49FB7F8943C918D
:1004C000822F809583238C93E8812E2B28839FBFD6
:1004D000DF91CF9108958FB7F894EC912E2B2C9348
:1004E0008FBFF6CF8E3008F08E5087708064809377
:1004F0007C0080917A00806480937A0080917A00F9
:1005000086FDFCCF809178009091790008953FB7E7
:10051000F8948091510190915201A0915301B091B2
:10052000540126B5A89B05C02F3F19F00196A11DC7
:10053000B11D3FBFBA2FA92F982F8827BC01CD012D
:10054000620F711D811D911D42E0660F771F881F8C
:10055000991F4A95D1F708958F929F92AF92BF92BB
:10056000CF92DF92EF92FF926B017C010E94870293
:100570004B015C01C114D104E104F104B9F00E9403
:100580008702681979098A099B09683E73408105C9
:10059000910580F321E0C21AD108E108F10888EE44
:1005A000880E83E0981EA11CB11CE4CFFF90EF9051
:1005B000DF90CF90BF90AF909F908F9008952FB70E
:1005C000F89460914D0170914E0180914F0190918E
:1005D00050012FBF08958F929F92AF92BF92CF92FA
:1005E000DF92EF92FF926B017C010E94DF024B01D0
:1005F0005C01C80CD91CEA1CFB1C0E94DF026815B8
:1006000079058A059B0528F0C616D706E806F9067F
:10061000A0F7FF90EF90DF90CF90BF90AF909F90AA
:100620008F900895CF92DF92EF92FF920F931F93D6
:10063000811123C00E94DF020091FB011091FC0197
:100640002091FD013091FE01DC01CB01801B910B5B
:10065000A20BB30B81329105A105B10570F401E243
:1006600010E020E030E068017901C81AD90AEA0AEE
:10067000FB0AC701B6010E94EB020E94DF026093F1
:10068000FB017093FC018093FD019093FE0181E0DA
:100690001F910F91FF90EF90DF90CF900895EF9210
:1006A000FF920F931F93CF93DF93D62F0E94EA01FF
:1006B0008C01C1E0892B09F4C0E0CD1719F00E942C
:1006C000DF027B010E94DF026E197F098109910917
:1006D000653671058105910530F0CD1721F0C1E037
:1006E000012B09F0C0E08C2FDF91CF911F910F916A
:1006F000FF90EF900895FC0101900020E9F73197F9
:10070000AF01481B590BBC018CE591E00C94B4007F
:100710008F929F92AF92BF920F931F93CF93DF93CD
:10072000CDB7DEB7A1970FB6F894DEBF0FBECDBF31
:1007300019A2423008F44AE08E010F5D1F4F842E4B
:10074000912CB12CA12CA50194010E941008E62F38
:10075000B901CA01EA30F4F4E05DD801EE938D01ED
:10076000232B242B252B79F790E080E0109719F0AC
:10077000CD010E947B03A1960FB6F894DEBF0FBE99
:10078000CDBFDF91CF911F910F91BF90AF909F9000
:100790008F900895E95CE1CF0C947B031F920F9238
:1007A0000FB60F9211242F933F934F935F936F9344
:1007B0007F938F939F93AF93BF93EF93FF938CE5BA
:1007C00091E00E943201FF91EF91BF91AF919F9113
:1007D0008F917F916F915F914F913F912F910F90EA
:1007E0000FBE0F901F9018951F920F920FB60F9289
:1007F00011242F938F939F93EF93FF93E0916C01BC
:10080000F0916D018081E0917201F091730182FDA0
:100810001BC09081809175018F5F8F73209176014D
:10082000821741F0E0917501F0E0E45AFE4F958F98
:1008300080937501FF91EF919F918F912F910F9070
:100840000FBE0F901F9018958081F4CF1F920F92CA
:100850000FB60F9211242F933F938F939F93AF93D3
:10086000BF9380914D0190914E01A0914F01B091A5
:10087000500130914C0123E0230F2D3758F501969C
:10088000A11DB11D20934C0180934D0190934E0109
:10089000A0934F01B093500180915101909152016A
:1008A000A0915301B09154010196A11DB11D8093F7
:1008B000510190935201A0935301B0935401BF9101
:1008C000AF919F918F913F912F910F900FBE0F90FD
:1008D0001F90189526E8230F0296A11DB11DD2CFB7
:1008E000ECE5F1E01382128288EE93E0A0E0B0E044
:1008F00084839583A683B78387E091E09183808387
:1009000085EC90E09587848784EC90E097878687D4
:1009100080EC90E0918B808B81EC90E0938B828BCC
:1009200082EC90E0958B848B86EC90E0978B868BA5
:10093000118E128E138E148EE9EFF1E0168217825B
:1009400010861186128613861486158616861786DB
:10095000108A118A128A138A148A158A0895789443
:1009600084B5826084BD84B5816084BD85B58260B4
:1009700085BD85B5816085BD80916E008160809365
:100980006E001092810080918100826080938100CE
:1009900080918100816080938100809180008160DE
:1009A000809380008091B10084608093B100809139
:1009B000B00081608093B00080917A008460809361
:1009C0007A0080917A00826080937A0080917A0028
:1009D000816080937A0080917A00806880937A00A9
:1009E0001092C10010923B0210923C0210923D0204
:1009F00010923E021092FB011092FC011092FD0138
:100A00001092FE0168EB7BE080E090E00E94EB0238
:100A100060ED77E080E090E00E94AC020E948C00E4
:100A20000E94DF026093FB017093FC018093FD0143
:100A30009093FE0185E191E00E94CC036AE070E0B2
:100A400080E090E00E94EB0281E080930F0280E062
:100A50000E9412038823F1F087E291E00E94CC0308
:100A60008EE291E00E94CC038EE291E00E94CC03E2
:100A70008EE291E00E94CC038EE291E00E94CC03D2
:100A800080E391E00E94CC036AE070E080E090E0B7
:100A90000E94EB0262E08DE00E94410262E08CE085
:100AA0000E94410262E08BE00E94410262E08AE023
:100AB0000E94410261E089E00E94410261E088E019
:100AC0000E94410261E087E00E94410261E086E00D
:100AD0000E94410261E085E00E94410261E084E001
:100AE0000E94410261E083E00E94410261E082E0F5
:100AF0000E94410261E089E00E94130261E088E007
:100B00000E94130260E087E00E94130261E086E029
:100B10000E94130261E085E00E94130261E084E01C
:100B20000E94130260E083E00E94130280E00E94B2
:100B30007202853691055CF061E085E00E94130247
:100B400061E089E00E94130281E08093010181E06D
:100B50000E94720290935701809356018536910549
:100B60000CF464C061E084E00E94130261E088E05C
:100B70000E94130281E08093000168EE73E080E040
:100B800090E00E94AC0261E086E00E94130260E007
:100B900082E00E9413020E948C0081E08093020197
:100BA000C0E0D0E011E084EF882E99249394A12C2A
:100BB000B12C0E94DF02C0905801D0905901E09002
:100BC0005A01F0905B016C197D098E099F09663905
:100BD00071058105910508F491C00E94DF026093C0
:100BE00058017093590180935A0190935B0161E021
:100BF00070E080E090E00E94EB020E94DF026093D0
:100C0000FB017093FC018093FD019093FE0187E24C
:100C100091E00E94CC038EE291E00E94CC03712C03
:100C200000E0C12CD12C760120E01DC08091010193
:100C3000882309F4A2CF61E083E00E94130261E0FF
:100C400087E00E94130281E08093550196CF21E056
:100C5000C216D104E104F10439F38C2D0E94EA019B
:100C600021E0892B09F3822F072C01C0880F0A94F9
:100C7000EAF7082B739438E0731631F04DE0C41690
:100C8000D104E104F10469F4602F70E090E080E0A9
:100C90004AE00E94880382E491E00E94CC03712C18
:100CA00000E061E070E080E090E00E94EB025FEF26
:100CB000C51AD50AE50AF50A8EE0C816D104E10482
:100CC000F10429F661E070E080E090E00E94EB0220
:100CD0008EE291E00E94CC038EE291E00E94CC0370
:100CE0008EE291E00E94CC0380E391E00E94CC036D
:100CF00061E070E080E090E00E94EB026091020110
:100D00008AE00E944F0380930201882309F415C1F1
:100D10008092070290920802A0920902B0920A0201
:100D200010920B0210920C0210920D0210920E0201
:100D30008091FF0190910002A0910102B091020206
:100D40008093030290930402A0930502B0930602DD
:100D50000E94DF026093FF01709300028093010202
:100D60009093020280E00E941203882309F45EC07F
:100D70000E94DF026B017C0189E391E00E94CC03B9
:100D80004AE061E070E080E090E00E94880380E447
:100D900091E00E94CC034AE0C701B6010E9488039B
:100DA00082E491E00E94CC038091FF0190910002C7
:100DB000A0910102B0910202A7019601281B390BF4
:100DC0004A0B5B0BCA01B9014AE00E94880382E426
:100DD00091E00E94CC036091FF017091000280912C
:100DE000010290910202C0900302D0900402E090B0
:100DF0000502F09006026C197D098E099F094AE0F0
:100E00000E9488038EE291E00E94CC03609102016F
:100E100070E090E080E04AE00E94880384E491E082
:100E20000E947B0386E391E00E947B0362E070E016
:100E300080E090E00E94EB020E94DF026093FF01DD
:100E400070930002809301029093020280E00E945E
:100E5000720220910101211105C08536910514F01F
:100E60001093010120910101222329F0843691057C
:100E700014F41092010181E00E9472027C019093AF
:100E800057018093560180910001811126C035E6FB
:100E9000E316F10414F11093000161E084E00E9474
:100EA000130261E088E00E94130261E083E00E9487
:100EB000130261E087E00E9413021093550161E084
:100EC00082E00E94130268EE73E080E090E00E94EE
:100ED000AC0260E082E00E9413028091000188234E
:100EE00031F144E6E416F10414F51092000160E0DB
:100EF00084E00E94130260E088E00E94130260E038
:100F000083E00E94130260E087E00E9413021092C7
:100F1000550161E082E00E94130268EE73E080E018
:100F200090E00E94AC0260E082E00E94130268E55B
:100F300072E080E090E00E94AC0280910201811199
:100F40004FC0609101018DE00E944F038093010129
:100F500081115AC061E085E00E94130261E089E0DE
:100F60000E94130261E082E00E94130268EE73E0C7
:100F700080E090E00E94AC0260E082E00E941302F8
:100F8000609100018CE00E944F0380930001811169
:100F900016C061E084E00E94130261E088E00E94D4
:100FA000130261E082E00E94130268EE73E080E0C9
:100FB00090E00E94AC0260E082E00E941302609127
:100FC00055018BE00E944F0380935501811122C08F
:100FD00061E083E00E94130261E087E00E94130257
:100FE0008091020161E0811101C060E086E00E9411
:100FF0001302209709F4DDCD0E941E01882309F415
:10100000D8CD0E940000D5CD60E085E00E9413029B
:1010100060E0A5CF60E083E00E94130260E0DDCFD6
:10102000A1E21A2EAA1BBB1BFD010DC0AA1FBB1FEC
:10103000EE1FFF1FA217B307E407F50720F0A21B5E
:10104000B30BE40BF50B661F771F881F991F1A94CB
:1010500069F760957095809590959B01AC01BD01F5
:10106000CF010895EE0FFF1F0590F491E02D099434
:04107000F894FFCF22
:10107400010101000000005401B400E100A10112CB
:1010840001F0000401564D4450565F317C315F56E7
:101094004D4450560D0A00564D4450525F007C009A
:1010A4005F564D4450520D0A00564D4450455F0062
:0C10B4003A323A005F564D4450450000AF
:107E0000112484B714BE81FFF0D085E080938100F7
:107E100082E08093C00088E18093C10086E0809377
:107E2000C20080E18093C4008EE0C9D0259A86E02C
:107E300020E33CEF91E0309385002093840096BBD3
:107E4000B09BFECF1D9AA8958150A9F7CC24DD24C4
:107E500088248394B5E0AB2EA1E19A2EF3E0BF2EE7
:107E6000A2D0813461F49FD0082FAFD0023811F036
:107E7000013811F484E001C083E08DD089C08234E0
:107E800011F484E103C0853419F485E0A6D080C0E4
:107E9000853579F488D0E82EFF2485D0082F10E0AE
:107EA000102F00270E291F29000F111F8ED06801E7
:107EB0006FC0863521F484E090D080E0DECF843638
:107EC00009F040C070D06FD0082F6DD080E0C81688
:107ED00080E7D80618F4F601B7BEE895C0E0D1E017
:107EE00062D089930C17E1F7F0E0CF16F0E7DF06D8
:107EF00018F0F601B7BEE89568D007B600FCFDCFD4
:107F0000A601A0E0B1E02C9130E011968C91119780
:107F100090E0982F8827822B932B1296FA010C0160
:107F200087BEE89511244E5F5F4FF1E0A038BF0790
:107F300051F7F601A7BEE89507B600FCFDCF97BE46
:107F4000E89526C08437B1F42ED02DD0F82E2BD052
:107F50003CD0F601EF2C8F010F5F1F4F84911BD097
:107F6000EA94F801C1F70894C11CD11CFA94CF0C13
:107F7000D11C0EC0853739F428D08EE10CD085E9AC
:107F80000AD08FE07ACF813511F488E018D01DD067
:107F900080E101D065CF982F8091C00085FFFCCF94
:107FA0009093C60008958091C00087FFFCCF809118
:107FB000C00084FD01C0A8958091C6000895E0E648
:107FC000F0E098E1908380830895EDDF803219F02E
:107FD00088E0F5DFFFCF84E1DECF1F93182FE3DFCA
:107FE0001150E9F7F2DF1F91089580E0E8DFEE27F6
:047FF000FF270994CA
:027FFE00040479
:0400000300007E007B
:00000001FF