:100000000C9463000C948B000C948B000C948B006C
:100010000C948B000C948B000C948B000C9430058A
:100020000C948B000C948B000C948B000C948B0024
:100030000C948B000C948B000C948B000C948B0014
:100040000C940A060C948B000C94D8050C94B20501
:100050000C948B000C948B000C948B000C948B00F4
:100060000C948B000C948B000000000024002700EF
:100070002A000000000023002600290000000008DC
:10008000000201000003040700000000000000005F
:10009000010204081020408001020408102001021F
:1000A0000408102000000000250028002B00040494
:1000B0000404040404040202020202020303030310
:1000C00003030200540611241FBECFEFD8E0DEBFA9
:1000D000CDBF22E0A0E5B1E001C01D92A436B20779
:1000E000E1F711E0A0E0B1E0E6E5F9E102C005903A
:1000F0000D92A035B107D9F710E0C3E6D0E004C0F7
:100100002197FE010E94A30CC236D107C9F70E94B5
:1001100093060C94A90C0C940000AF92BF92CF925E
:10012000DF92EF92FF920F931F93CF93DF936C01B7
:100130007B018B01040F151FEB015E01AE18BF0898
:10014000C017D10759F06991D601ED91FC9101904A
:10015000F081E02DC6010995892B79F7C501DF9162
:10016000CF911F910F91FF90EF90DF90CF90BF90B4
:10017000AF900895FC01538D448D252F30E0842FDE
:1001800090E0821B930B541710F0CF9608950197BF
:100190000895FC01918D828D981761F0A28DAE0FAC
:1001A000BF2FB11D5D968C91928D9F5F9F73928F33
:1001B00090E008958FEF9FEF0895FC01918D828D5F
:1001C000981731F0828DE80FF11D858D90E008952C
:1001D0008FEF9FEF0895FC01918D228D892F90E084
:1001E000805C9F4F821B91098F739927089581E846
:1001F00091E00E94EB0021E0892B09F420E0822F9E
:10020000089580E090E0892B29F00E94F700811189
:100210000C9400000895FC01A48DA80FB92FB11D06
:10022000A35ABF4F2C91848D90E001968F7399272C
:10023000848FA689B7892C93A089B1898C9183700A
:1002400080648C93938D848D981306C00288F38903
:10025000E02D80818F7D80830895EF92FF920F9330
:100260001F93CF93DF93EC0181E0888F9B8D8C8D62
:1002700098131AC0E889F989808185FF15C09FB756
:10028000F894EE89FF896083E889F9898081837019
:10029000806480839FBF81E090E0DF91CF911F91C8
:1002A0000F91FF90EF900895F62E0B8D10E00F5FE9
:1002B0001F4F0F731127E02E8C8D8E110CC00FB6BF
:1002C00007FCFACFE889F989808185FFF5CFCE0157
:1002D0000E940B01F1CFEB8DEC0FFD2FF11DE35AC6
:1002E000FF4FF0829FB7F8940B8FEA89FB898081DA
:1002F0008062CFCFCF93DF93EC01888D8823B9F054
:10030000AA89BB89E889F9898C9185FD03C0808120
:1003100086FD0DC00FB607FCF7CF8C9185FFF2CF9D
:10032000808185FFEDCFCE010E940B01E9CFDF91E7
:10033000CF910895833081F028F4813099F0823094
:10034000A9F008958730A9F08830C9F08430B1F45D
:10035000809180008F7D03C0809180008F77809393
:100360008000089584B58F7784BD089584B58F7D0E
:10037000FBCF8091B0008F778093B000089580917B
:10038000B0008F7DF9CFCF93DF93282F30E0F901B4
:10039000E458FF4F8491F901E057FF4FD491F901E0
:1003A000E255FF4FC491CC23A1F081110E949A0124
:1003B000EC2FF0E0EE0FFF1FEE58FF4FA591B49128
:1003C000EC91ED2381E090E009F480E0DF91CF91A2
:1003D000089580E090E0FACF1F93CF93DF93282F0A
:1003E00030E0F901E458FF4F8491F901E057FF4FE5
:1003F000D491F901E255FF4FC491CC23A9F0162FF7
:1004000081110E949A01EC2FF0E0EE0FFF1FEC55D6
:10041000FF4FA591B4918FB7F894EC91111108C0DA
:10042000D095DE23DC938FBFDF91CF911F9108958C
:10043000DE2BF8CFCF93DF9390E0FC01E057FF4F26
:10044000249182559F4FFC0184918823D1F090E044
:10045000880F991FFC01E859FF4FA591B491FC0149
:10046000EC55FF4FC591D491623071F49FB7F89469
:100470003C91822F809583238C93E8812E2B2883B7
:100480009FBFDF91CF9108958FB7F894EC912E2BF9
:100490002C938FBFF6CFCF92DF92EF92FF92CF9344
:1004A0006C0180910601803149F08F3F09F444C00E
:1004B000CF91FF90EF90DF90CF900895E2ECF0E0C5
:1004C000C491C7FDF5CF61E080E10E941A02F12CD2
:1004D000E12CCC23D9F0960150E040E0C23009F085
:1004E0009AC07A0160E970ED83E090E00E94840C8C
:1004F000BA01A901415051096109710993E04F3FC7
:1005000051056105710509F00CF4C1C068E478EE8D
:1005100081E090E0A70196010E94840CBA01A90134
:10052000415051096109710994E0C111B0C085B50C
:10053000887F836085BDB7C080E180930601E2ECCF
:10054000F0E0C491CF3F09F4B3CFC13021F150F0B6
:10055000C23009F43EC0C7FDABCF61E080E10E942C
:100560001A02B9CF14BC15BC84B5826084BD85B5B0
:10057000816085BDEEEBF0E0E491F0E0EE0FFF1F4F
:10058000EC55FF4F85919491E0EAF0E0E491E0931F
:100590007401C0E098CF1092800010928100809189
:1005A00081008860809381008091810081608093C8
:1005B0008100EEEBF0E0E491F0E0EE0FFF1FEC5570
:1005C000FF4F85919491E0EAF0E0E491E0937301AC
:1005D0007ACF1092B0001092B1008091B00082608A
:1005E0008093B0008091B10081608093B100EEEB08
:1005F000F0E0E491F0E0EE0FFF1FEC55FF4F859126
:1006000094919093720180937101E0EAF0E0E4919B
:10061000E093700158CF60E072E18AE790E00E94B9
:10062000840CBA01A9014150510961097109C13015
:10063000A1F580918100887F816080938100509333
:100640008900409388008FEF9FEFDC018093790150
:1006500090937A01A0937B01B0937C0180916F000D
:10066000826080936F0024CF4093B3008FEF9FEFA1
:10067000DC018093750190937601A0937701B0938C
:1006800078018091700082608093700011CF80911A
:10069000B100887F892B8093B100C13081F2C230D4
:1006A00019F3C11105CF47BD8FEF9FEFDC01809398
:1006B0007D0190937E01A0937F01B0938001809192
:1006C0006E00826080936E00F3CE8E3008F08E5004
:1006D0008770806480937C0080917A00806480932E
:1006E0007A0080917A0086FDFCCF8091780090910D
:1006F000790008953FB7F894809155019091560183
:10070000A0915701B091580126B5A89B05C02F3F75
:1007100019F00196A11DB11D3FBFBA2FA92F982F27
:100720008827BC01CD01620F711D811D911D42E022
:10073000660F771F881F991F4A95D1F708958F92EA
:100740009F92AF92BF92CF92DF92EF92FF926B0196
:100750007C010E947A034B015C01C114D104E104C5
:10076000F104B9F00E947A03681979098A099B0992
:10077000683E73408105910580F321E0C21AD108DB
:10078000E108F10888EE880E83E0981EA11CB11CD8
:10079000E4CFFF90EF90DF90CF90BF90AF909F900D
:1007A0008F9008952FB7F894609151017091520184
:1007B00080915301909154012FBF08958F929F9281
:1007C000AF92BF92CF92DF92EF92FF926B017C01CA
:1007D0000E94D2034B015C01C80CD91CEA1CFB1C13
:1007E0000E94D203681579058A059B0528F0C61674
:1007F000D706E806F906A0F7FF90EF90DF90CF90BC
:10080000BF90AF909F908F9008958F929F92AF92DC
:10081000BF92CF92DF92EF92FF92811135C00E947A
:10082000D203C0902002D0902102E0902202F090EA
:1008300023029B01AC012C193D094E095F09690196
:100840007A0131E2C316D104E104F104E8F40E9414
:10085000D2034B015C01DC01CB018C199D09AE096F
:10086000BF096C017D0191E2C90ED11CE11CF11C94
:100870000E94D203681579058A059B0528F0C616E3
:10088000D706E806F906A0F70E94D203609320027B
:1008900070932102809322029093230281E0FF90C3
:1008A000EF90DF90CF90BF90AF909F908F90089582
:1008B000FC0101900020E9F73197AF01481B590B6B
:1008C000BC0181E891E00C948D008F929F92AF92D1
:1008D000BF920F931F93CF93DF93CDB7DEB7A1974E
:1008E0000FB6F894DEBF0FBECDBF19A2423008F498
:1008F0004AE08E010F5D1F4F842E912CB12CA12C4C
:10090000A50194010E94620CE62FB901CA01EA30E8
:10091000F4F4E05DD801EE938D01232B242B252BDD
:1009200079F790E080E0109719F0CD010E9458040B
:10093000A1960FB6F894DEBF0FBECDBFDF91CF9169
:100940001F910F91BF90AF909F908F900895E95C99
:10095000E1CF0C94580489E191E00E9458048CE4A2
:1009600091E00C945804CF92DF92EF92FF92CF93D4
:10097000DF936C01990FEE08FF08F7FE19C06DE2D6
:1009800081E891E00E942D01EC0166277727CB01D9
:100990006C197D098E099F094AE00E9465048C0F3D
:1009A0009D1FDF91CF91FF90EF90DF90CF90089542
:1009B0004AE0C701B601DF91CF91FF90EF90DF9041
:1009C000CF900C946504CF92DF92EF92FF92CF9379
:1009D000DF93C82F0E94D2036B017C0180E291E07B
:1009E0000E94A9046C2F70E090E080E04AE00E9431
:1009F000650487E291E00E94A9044AE0C701B601BC
:100A00000E94650489E291E00E94A904CEE1D2E04F
:100A10008E819F81A885B985A7019601281B390B76
:100A20004A0B5B0BCA01B9014AE00E94650489E2E6
:100A300091E00E94A9046E817F8188859985CA848E
:100A4000DB84EC84FD846C197D098E099F094AE0E2
:100A5000DF91CF91FF90EF90DF90CF900C946504E1
:100A60001F920F920FB60F9211242F933F934F9323
:100A70005F936F937F938F939F93AF93BF93EF9306
:100A8000FF938091750190917601A0917701B091CB
:100A90007801892B8A2B8B2BD1F190917001E091F9
:100AA0007101F091720180818927808380917501A5
:100AB00090917601A0917701B091780118161906EE
:100AC0001A061B069CF48091750190917601A09105
:100AD0007701B09178010197A109B109809375015F
:100AE00090937601A0937701B0937801FF91EF91F5
:100AF000BF91AF919F918F917F916F915F914F9136
:100B00003F912F910F900FBE0F901F9018958091DD
:100B10000601E2ECF0E0E4919FEF90930601E130F2
:100B200051F030F0E23069F060E00E94EC01DECF7D
:100B300010926E00F9CF90916F009D7F90936F009F
:100B4000F3CF909170009D7F9093700091E090930F
:100B5000B0009091B100987F94609093B100109292
:100B6000B300E2CF1F920F920FB60F9211242F9372
:100B70003F934F935F936F937F938F939F93AF9325
:100B8000BF93EF93FF9381E891E00E940B01FF91E7
:100B9000EF91BF91AF919F918F917F916F915F91F5
:100BA0004F913F912F910F900FBE0F901F9018956E
:100BB0001F920F920FB60F9211242F938F939F9332
:100BC000EF93FF93E0919101F09192018081E09188
:100BD0009701F091980182FD1BC0908180919A014C
:100BE0008F5F8F7320919B01821741F0E0919A01F2
:100BF000F0E0EF57FE4F958F80939A01FF91EF91B0
:100C00009F918F912F910F900FBE0F901F9018956D
:100C10008081F4CF1F920F920FB60F9211242F9361
:100C20003F938F939F93AF93BF9380915101909186
:100C30005201A0915301B09154013091500123E031
:100C4000230F2D3758F50196A11DB11D209350019A
:100C50008093510190935201A0935301B09354019A
:100C60008091550190915601A0915701B091580182
:100C70000196A11DB11D8093550190935601A0933B
:100C80005701B0935801BF91AF919F918F913F91C0
:100C90002F910F900FBE0F901F90189526E8230FED
:100CA0000296A11DB11DD2CFE1E8F1E013821282BC
:100CB00088EE93E0A0E0B0E084839583A683B783B9
:100CC0008BE091E09183808385EC90E09587848729
:100CD00084EC90E09787868780EC90E0918B808B06
:100CE00081EC90E0938B828B82EC90E0958B848BEF
:100CF00086EC90E0978B868B118E128E138E148E5D
:100D0000EEE1F2E0168217821086118612861386B3
:100D10001486158616861786108A118A128A138AF7
:100D2000148A158A0895789484B5826084BD84B548
:100D3000816084BD85B5826085BD85B5816085BDD6
:100D400080916E00816080936E001092810080918E
:100D50008100826080938100809181008160809316
:100D60008100809180008160809380008091B1003B
:100D700084608093B1008091B00081608093B00066
:100D800080917A00846080937A0080917A008260FA
:100D900080937A0080917A00816080937A008091BC
:100DA0007A00806880937A001092C10010926002ED
:100DB000109261021092620210926302109220025D
:100DC00010922102109222021092230268EB7BE023
:100DD00080E090E00E94DE0360ED77E080E090E04C
:100DE0000E949F03E0919101F091920182E0808343
:100DF000E0918D01F0918E011082E0918F01F091D0
:100E0000900180E1808310929901E0919501F09129
:100E1000960186E08083E0919301F09194018081B6
:100E200080618083E0919301F091940180818860DA
:100E30008083E0919301F0919401808180688083A8
:100E4000E0919301F091940180818F7D80830E94D5
:100E5000D203609320027093210280932202909328
:100E600023028BE291E00E94A9046AE070E080E036
:100E700090E00E94DE0381E08093340280E00E94D3
:100E800005048823F1F08DE391E00E94A90484E435
:100E900091E00E94A90484E491E00E94A90484E402
:100EA00091E00E94A90484E491E00E94A90486E4F0
:100EB00091E00E94A9046AE070E080E090E00E9466
:100EC000DE0362E08DE00E941A0262E08CE00E9484
:100ED0001A0262E08BE00E941A0262E08AE00E943D
:100EE0001A0261E089E00E941A0261E088E00E9433
:100EF0001A0261E087E00E941A0261E086E00E9427
:100F00001A0261E085E00E941A0261E084E00E941A
:100F10001A0261E083E00E941A0261E082E00E940E
:100F20001A0262E08EE00E941A0262E08FE00E94E4
:100F30001A0261E080E10E941A0261E081E10E94F0
:100F40001A0284EF91E00E944B0281E08093040139
:100F50001092610180935F01809360018093010191
:100F60008093050161E086E00E94EC0161E082E08F
:100F70000E94EC0161E087E00E94EC0161E083E007
:100F80000E94EC0161E089E00E94EC0161E085E0F3
:100F90000E94EC0161E088E00E94EC0161E084E0E5
:100FA0000E94EC0168E97AE380E090E00E949F03F0
:100FB00088EE93E00E944B0210920201109203010E
:100FC00010926A011092690160E087E00E94EC01D2
:100FD00060E083E00E94EC0160E089E00E94EC01A7
:100FE00060E085E00E94EC0160E088E00E94EC0196
:100FF00060E084E00E94EC0168E97AE380E090E040
:101000000E949F0360E082E00E94EC0162E080E1C8
:101010000E941A0210926B018EE00E9465038536D1
:1010200091050CF469C081E090E090935E0180939B
:101030005D018FE00E946503853691050CF461C067
:1010400081E090E090935C0180935B010E94D20369
:1010500060936301709364018093650190936601CE
:10106000D1E084EF882E99249394A12CB12C90E0A8
:10107000C92E90E0D92EC1E0EE24E394F12C0E9419
:10108000D20300916C0110916D0120916E0130919D
:101090006F01601B710B820B930B66397105810523
:1010A000910508F496C00E94D20360936C0170937E
:1010B0006D0180936E0190936F0161E070E080E0BC
:1010C00090E00E94DE030E94D2036093200270939E
:1010D000210280932202909323028DE391E00E94EB
:1010E000A90484E491E00E94A904412C512C32010E
:1010F00010E000E020E016C010925E0110925D0149
:1011000098CF10925C0110925B01A0CF81E048164D
:1011100051046104710471F3842D0E94C30121E024
:10112000892B41F3822F002E01C0880F0A94EAF721
:10113000182B0F5F083031F08DE048165104610420
:10114000710469F4612F70E090E080E04AE00E9451
:10115000650489E291E00E94A90400E010E061E0EA
:1011600070E080E090E00E94DE038FEF481A580A9A
:10117000680A780A8EE0481651046104710431F659
:1011800061E070E080E090E00E94DE0384E491E0A2
:101190000E94A90410E0812F0E9465030E94B304FD
:1011A00089E291E00E94A9041F5F1630A1F784E450
:1011B00091E00E94A90484E491E00E94A90486E4DD
:1011C00091E00E94A90461E070E080E090E00E945C
:1011D000DE036090040180910501861509F442C286
:1011E000C0936B010E94D2030091630110916401CE
:1011F000209165013091660160177107820793079E
:1012000008F056C084EF91E00E944B0261E080E15B
:101210000E941A0261E082E00E94EC0160E085E039
:101220000E94EC0160E089E00E94EC0160E084E053
:101230000E94EC0160E088E00E94EC0160E083E045
:101240000E94EC0160E087E00E94EC0168E97AE32B
:1012500080E090E00E949F038CED95E00E944B029D
:1012600061E085E00E94EC0161E089E00E94EC0110
:1012700061E084E00E94EC0161E088E00E94EC0102
:1012800061E083E00E94EC0161E087E00E94EC01F4
:1012900068E97AE380E090E00E949F0360E082E0EA
:1012A0000E94EC0162E080E10E941A02C0936B018F
:1012B0000E94D2036093630170936401809365017F
:1012C0009093660180916B01882309F440C061E02E
:1012D00082E00E94EC0100910201602F89E00E94EF
:1012E000EC01602F85E00E94EC0110916A01612FF2
:1012F00087E00E94EC01612F83E00E94EC01612FE6
:1013000081E10E94EC0170900301672D88E00E944A
:10131000EC01672D84E00E94EC0161E080E10E9415
:101320001A0268E97AE380E090E00E949F0362E09D
:1013300080E10E941A0260E082E00E94EC011093BA
:1013400069016092050170926801009367018AE06B
:101350000E94C30121E0892B09F420E0209362015F
:1013600080922C0290922D02A0922E02B0922F0217
:101370001092300210923102109232021092330217
:101380008091240290912502A0912602B09127021B
:101390008093280290932902A0932A02B0932B02F3
:1013A0000E94D20360932402709325028093260248
:1013B0009093270280E00E940504882309F465C009
:1013C00083E00E94E30484E491E00E94A9048091F8
:1013D000040190E00E94B30484E491E00E94A90417
:1013E0008091050190E00E94B30484E491E00E94A2
:1013F000A90480916A0190E00E94B30484E491E022
:101400000E94A9048091610190E00E94B30484E4E9
:1014100091E00E94A9048091030190E00E94B3042E
:1014200084E491E00E94A9048091600190E00E9410
:10143000B30484E491E00E94A9048091020190E049
:101440000E94B30484E491E00E94A90480915F01AA
:1014500090E00E94B30484E491E00E94A90480918A
:101460006B0190E00E94B30484E491E00E94A9041F
:1014700060916301709164018091650190916601B2
:101480004AE00E9465040E94AB0462E070E080E0E4
:1014900090E00E94DE030E94D203609324027093C6
:1014A0002502809326029093270220916201211148
:1014B000FDC120910101222339F0209105012D2742
:1014C0002093050110920101209105012093040150
:1014D00080922C0290922D02A0922E02B0922F02A6
:1014E00010923002109231021092320210923302A6
:1014F000609328027093290280932A0290932B0212
:101500000E94D203609324027093250280932602E6
:101510009093270280E00E940504882309F44FC0BD
:1015200081E00E94E30484E491E00E94A904809198
:10153000040190E00E94B30484E491E00E94A904B5
:101540008091050190E00E94B30484E491E00E9440
:10155000A9048091620190E00E94B30484E491E0C8
:101560000E94A90480915D0190915E010E94B304E4
:1015700084E491E00E94A90480915B0190915C0158
:101580000E94B30484E491E00E94A90480916A015E
:1015900090E00E94B30484E491E00E94A904809149
:1015A000030190E00E94B30484E491E00E94A90446
:1015B0008091020190E00E94B3040E94AB0462E0BB
:1015C00070E080E090E00E94DE030E94D20360930E
:1015D0002402709325028093260290932702109193
:1015E0000401612F86E00E94EC018EE00E946503F9
:1015F000853691050CF44BC0F0925E01E0925D01DE
:101600008FE00E946503853691050CF445C0F09289
:101610005C01E0925B01112309F46BC000915B0156
:1016200010915C0180915D0190915E01892B09F41C
:101630003DC0012BB1F180916A01811110926A01C4
:10164000C0930301C0930201C0935F01C114D10490
:1016500009F415CD0E94F700882309F410CD0E94EB
:1016600000000DCD90916A01809169019813B8CD69
:1016700090910301809168019813B2CD909102017D
:10168000809167019813ACCD10926B01ABCD109295
:101690005E0110925D01B4CF10925C0110925B016B
:1016A000BACFC0936A0110920301CCCF61E089E008
:1016B0000E94EC0164E670E080E090E00E949F03ED
:1016C00060E089E00E94EC0164E670E080E090E078
:1016D0000E949F031092020110925F0180916A01A3
:1016E000811110926A01012B09F4B0CFC09303015C
:1016F000ADCF8BE00E94C30121E0009709F420E008
:1017000020936201892B09F0D4C080915A0188236B
:1017100039F0809161018D278093610110925A0107
:101720008091610180936A0180922C0290922D0237
:10173000A0922E02B0922F0210923002109231022B
:10174000109232021092330280912402909125026D
:10175000A0912602B091270280932802909329023B
:10176000A0932A02B0932B020E94D203609324021A
:1017700070932502809326029093270280E00E94B6
:1017800005048823B9F082E00E94E30484E491E038
:101790000E94A90480916A0190E00E94B30484E44D
:1017A00091E00E94A9048091610190E00E94B3043D
:1017B0000E94AB0462E070E080E090E00E94DE03F3
:1017C0000E94D20360932402709325028093260224
:1017D0009093270200915D0110915E0180916A0152
:1017E0008823A1F00130110561F480910201882362
:1017F00041F080910301882309F428CF109203015E
:1018000025CF10926A011092610120CF8CE00E94D6
:10181000C30121E0009709F420E020936201892BA5
:1018200009F04AC080910001882339F0809160015D
:101830008D27809360011092000180916001809358
:1018400003018DE00E94C30121E0009709F420E02C
:1018500020936201892B99F580915901882339F0F1
:1018600080915F018D2780935F01109259018091D3
:101870005F0180930201012B09F0E8CE882309F46F
:10188000E5CE60E089E00E94EC0164E670E080E073
:1018900090E00E949F0361E089E00E94EC0164E611
:1018A00070E080E090E00E949F03D0CEC0930101E1
:1018B0000BCEC0935A0134CFC0930001BECFC0936A
:1018C0005901D5CFA1E21A2EAA1BBB1BFD010DC0E9
:1018D000AA1FBB1FEE1FFF1FA217B307E407F507E0
:1018E00020F0A21BB30BE40BF50B661F771F881FBC
:1018F000991F1A9469F760957095809590959B0152
:10190000AC01BD01CF010895052E97FB1EF4009494
:101910000E949B0C57FD07D00E94620C07FC03D06D
:101920004EF40C949B0C50954095309521953F4F6B
:101930004F4F5F4F089590958095709561957F4FBB
:101940008F4F9F4F0895EE0FFF1F0590F491E02DEC
:061950000994F894FFCF9A
:10195600010101010101FF000000002D018D00BA07
:10196600007A01EB00C900DD005F564D445045008A
:10197600564D4450455F003A323A00564D44505653
:101986005F317C315F564D4450560D0A00564D442A
:1019960050525F007C005F564D4450520D0A0000C5
:107E0000112484B714BE81FFF0D085E080938100F7
:107E100082E08093C00088E18093C10086E0809377
:107E2000C20080E18093C4008EE0C9D0259A86E02C
:107E300020E33CEF91E0309385002093840096BBD3
:107E4000B09BFECF1D9AA8958150A9F7CC24DD24C4
:107E500088248394B5E0AB2EA1E19A2EF3E0BF2EE7
:107E6000A2D0813461F49FD0082FAFD0023811F036
:107E7000013811F484E001C083E08DD089C08234E0
:107E800011F484E103C0853419F485E0A6D080C0E4
:107E9000853579F488D0E82EFF2485D0082F10E0AE
:107EA000102F00270E291F29000F111F8ED06801E7
:107EB0006FC0863521F484E090D080E0DECF843638
:107EC00009F040C070D06FD0082F6DD080E0C81688
:107ED00080E7D80618F4F601B7BEE895C0E0D1E017
:107EE00062D089930C17E1F7F0E0CF16F0E7DF06D8
:107EF00018F0F601B7BEE89568D007B600FCFDCFD4
:107F0000A601A0E0B1E02C9130E011968C91119780
:107F100090E0982F8827822B932B1296FA010C0160
:107F200087BEE89511244E5F5F4FF1E0A038BF0790
:107F300051F7F601A7BEE89507B600FCFDCF97BE46
:107F4000E89526C08437B1F42ED02DD0F82E2BD052
:107F50003CD0F601EF2C8F010F5F1F4F84911BD097
:107F6000EA94F801C1F70894C11CD11CFA94CF0C13
:107F7000D11C0EC0853739F428D08EE10CD085E9AC
:107F80000AD08FE07ACF813511F488E018D01DD067
:107F900080E101D065CF982F8091C00085FFFCCF94
:107FA0009093C60008958091C00087FFFCCF809118
:107FB000C00084FD01C0A8958091C6000895E0E648
:107FC000F0E098E1908380830895EDDF803219F02E
:107FD00088E0F5DFFFCF84E1DECF1F93182FE3DFCA
:107FE0001150E9F7F2DF1F91089580E0E8DFEE27F6
:047FF000FF270994CA
:027FFE00040479
:0400000300007E007B
:00000001FF