:100000000C9462000C948A000C948A000C948A0070
:100010000C948A000C948A000C948A000C948A0038
:100020000C948A000C948A000C948A000C948A0028
:100030000C948A000C948A000C948A000C948A0018
:100040000C9483050C948A000C9451050C942B0598
:100050000C948A000C948A000C948A000C948A00F8
:100060000C948A000C948A000000000024002700F1
:100070002A0000000000250028002B0000000000DE
:1000800023002600290004040404040404040202DA
:100090000202020203030303030301020408102007
:1000A0004080010204081020010204081020000012
:1000B0000008000201000003040700000000000027
:1000C0000000CD0511241FBECFEFD8E0DEBFCDBFAD
:1000D00022E0ACE4B1E001C01D92AF33B207E1F71A
:1000E00011E0A0E0B1E0EEE0F2E102C005900D9277
:1000F000AC34B107D9F710E0C2E6D0E004C02197D4
:10010000FE010E94FF08C136D107C9F70E940C0604
:100110000C9405090C940000ECE5F1E0A089B1898C
:1001200082E08C93A485B5851C92A685B7858FEC5B
:100130008C93108EA489B58986E08C93A289B389AB
:100140008C9180618C93A289B3898C9188608C9307
:10015000A289B3898C9180688C930288F389E02D01
:1001600080818F7D80830895AF92BF92CF92DF927E
:10017000EF92FF920F931F93CF93DF936C017B015C
:100180008B01040F151FEB015E01AE18BF08C017ED
:10019000D10759F06991D601ED91FC910190F08160
:1001A000E02DC6010995892B79F7C501DF91CF9123
:1001B0001F910F91FF90EF90DF90CF90BF90AF9085
:1001C0000895FC01538D448D252F30E0842F90E05D
:1001D000821B930B541710F0CF9608950197089542
:1001E000FC01918D828D981761F0A28DAE0FBF2F0B
:1001F000B11D5D968C91928D9F5F9F73928F90E061
:1002000008958FEF9FEF0895FC01918D828D9817CF
:1002100031F0828DE80FF11D858D90E008958FEF0C
:100220009FEF0895FC01918D228D892F90E0805CD5
:100230009F4F821B91098F73992708958CE591E058
:100240000E94120121E0892B09F420E0822F0895F9
:1002500080E090E0892B29F00E941E0181110C940E
:1002600000000895FC01A48DA80FB92FB11DA35A59
:10027000BF4F2C91848D90E001968F739927848FC6
:10028000A689B7892C93A089B1898C9183708064E9
:100290008C93938D848D981306C00288F389E02D8A
:1002A00080818F7D80830895EF92FF920F931F933B
:1002B000CF93DF93EC0181E0888F9B8D8C8D981319
:1002C0001AC0E889F989808185FF15C09FB7F89425
:1002D000EE89FF896083E889F98980818370806471
:1002E00080839FBF81E090E0DF91CF911F910F91BC
:1002F000FF90EF900895F62E0B8D10E00F5F1F4FCB
:100300000F731127E02E8C8D8E110CC00FB607FCD9
:10031000FACFE889F989808185FFF5CFCE010E9467
:100320003201F1CFEB8DEC0FFD2FF11DE35AFF4FA2
:10033000F0829FB7F8940B8FEA89FB8980818062F5
:10034000CFCFCF93DF93EC01888D8823B9F0AA89B2
:10035000BB89E889F9898C9185FD03C0808186FD80
:100360000DC00FB607FCF7CF8C9185FFF2CF8081CF
:1003700085FFEDCFCE010E943201E9CFDF91CF9111
:100380000895833081F028F4813099F08230A9F00B
:1003900008958730A9F08830C9F08430B1F4809195
:1003A00080008F7D03C0809180008F7780938000D4
:1003B000089584B58F7784BD089584B58F7DFBCF74
:1003C0008091B0008F778093B00008958091B00045
:1003D0008F7DF9CFCF93DF93282F30E0F901E255DD
:1003E000FF4F8491F901E656FF4FD491F901EA5786
:1003F000FF4FC491CC23A1F081110E94C101EC2FC9
:10040000F0E0EE0FFF1FE458FF4FA591B491EC917F
:10041000ED2381E090E009F480E0DF91CF91089531
:1004200080E090E0FACF1F93CF93DF93282F30E046
:10043000F901E255FF4F8491F901E656FF4FD4913F
:10044000F901EA57FF4FC491CC23A9F0162F81116F
:100450000E94C101EC2FF0E0EE0FFF1FEE58FF4F9E
:10046000A591B4918FB7F894EC91111108C0D09573
:10047000DE23DC938FBFDF91CF911F910895DE2B98
:10048000F8CFCF93DF9390E0FC01E656FF4F249125
:100490008A579F4FFC0184918823D1F090E0880F08
:1004A000991FFC01E859FF4FA591B491FC01EE584A
:1004B000FF4FC591D491623071F49FB7F8943C918D
:1004C000822F809583238C93E8812E2B28839FBFD6
:1004D000DF91CF9108958FB7F894EC912E2B2C9348
:1004E0008FBFF6CF8E3008F08E5087708064809377
:1004F0007C0080917A00806480937A0080917A00F9
:1005000086FDFCCF809178009091790008953FB7E7
:10051000F8948091510190915201A0915301B091B2
:10052000540126B5A89B05C02F3F19F00196A11DC7
:10053000B11D3FBFBA2FA92F982F8827BC01CD012D
:10054000620F711D811D911D42E0660F771F881F8C
:10055000991F4A95D1F708958F929F92AF92BF92BB
:10056000CF92DF92EF92FF926B017C010E94870293
:100570004B015C01C114D104E104F104B9F00E9403
:100580008702681979098A099B09683E73408105C9
:10059000910580F321E0C21AD108E108F10888EE44
:1005A000880E83E0981EA11CB11CE4CFFF90EF9051
:1005B000DF90CF90BF90AF909F908F9008952FB70E
:1005C000F89460914D0170914E0180914F0190918E
:1005D00050012FBF08958F929F92AF92BF92CF92FA
:1005E000DF92EF92FF926B017C010E94DF024B01D0
:1005F0005C01C80CD91CEA1CFB1C0E94DF026815B8
:1006000079058A059B0528F0C616D706E806F9067F
:10061000A0F7FF90EF90DF90CF90BF90AF909F90AA
:100620008F9008958F929F92AF92BF92CF92DF9258
:10063000EF92FF92811135C00E94DF02C090FB0152
:10064000D090FC01E090FD01F090FE019B01AC0117
:100650002C193D094E095F0969017A0131E2C3167F
:10066000D104E104F104E8F40E94DF024B015C01D3
:10067000DC01CB018C199D09AE09BF096C017D011C
:1006800091E2C90ED11CE11CF11C0E94DF02681529
:1006900079058A059B0528F0C616D706E806F906EF
:1006A000A0F70E94DF026093FB017093FC0180932E
:1006B000FD019093FE0181E0FF90EF90DF90CF90DD
:1006C000BF90AF909F908F900895FC010190002003
:1006D000E9F73197AF01481B590BBC018CE591E05C
:1006E0000C94B4008F929F92AF92BF920F931F937E
:1006F000CF93DF93CDB7DEB7A1970FB6F894DEBFE7
:100700000FBECDBF19A2423008F44AE08E010F5D42
:100710001F4F842E912CB12CA12CA50194010E9475
:10072000DD08E62FB901CA01EA30F4F4E05DD80132
:10073000EE938D01232B242B252B79F790E080E07D
:10074000109719F0CD010E946503A1960FB6F89499
:10075000DEBF0FBECDBFDF91CF911F910F91BF9034
:10076000AF909F908F900895E95CE1CFCF92DF9298
:10077000EF92FF92CF93DF936B017C016DE28CE5EA
:1007800091E00E945401EC0166277727CB016C1998
:100790007D098E099F094AE00E9472038C0F9D1FFC
:1007A000DF91CF91FF90EF90DF90CF9008950C9460
:1007B000650385E191E00E94650388E491E00C9473
:1007C0006503BC01990F880B990B97FD0C94B60338
:1007D0004AE00C947203CF92DF92EF92FF92CF9394
:1007E000DF93C82F0E94DF026B017C018CE191E056
:1007F0000E94D7036C2F70E090E080E04AE00E94F6
:10080000720383E291E00E94D7034AE0C701B60178
:100810000E94720385E291E00E94D703C9EFD1E004
:100820008E819F81A885B985A7019601281B390B68
:100830004A0B5B0BCA01B9014AE00E94720385E2D0
:1008400091E00E94D7036E817F8188859985CA8453
:10085000DB84EC84FD846C197D098E099F094AE0D4
:10086000DF91CF91FF90EF90DF90CF900C947203C7
:10087000BF92CF92DF92EF92FF920F931F93CF938D
:10088000DF93D82FB62E0E94EA018C01C1E0892B9C
:1008900009F4C0E0CB1519F00E94DF026B010E9441
:1008A000DF02F12CE12C6C197D098E099F09653658
:1008B00071058105910508F457C0CB1509F454C0A2
:1008C0008091FF0190910002A0910102B09102027B
:1008D000C1E0012B09F0C0E044EF51E060E070E0BE
:1008E00040930702509308026093090270930A0232
:1008F00010920B0210920C0210920D0210920E0236
:100900008093030290930402A0930502B093060221
:100910000E94DF026093FF01709300028093010246
:100920009093020280E00E941203882369F082E023
:100930000E94EB0387E291E00E94D7038C2F90E0A6
:100940000E94E1030E94D90362E070E080E090E041
:100950000E94EB020E94DF026093FF01709300028D
:10096000809301029093020284EF91E0A0E0B0E056
:100970008093070290930802A0930902B0930A02A1
:1009800010920B0210920C0210920D0210920E02A5
:100990008091FF0190910002A0910102B0910202AA
:1009A0008093030290930402A0930502B093060281
:1009B0000E94DF026093FF017093000280930102A6
:1009C0009093020280E00E941203882349F183E0A1
:1009D0000E94EB0387E291E00E94D7038C2F90E006
:1009E0000E94E10387E291E00E94D7034AE0C70139
:1009F000B6010E94720387E291E00E94D7036D2F37
:100A000070E090E080E04AE00E94720387E291E0AB
:100A10000E94D7038B2D90E00E94E1030E94D9032E
:100A200062E070E080E090E00E94EB020E94DF0252
:100A30006093FF0170930002809301029093020281
:100A40008C2FDF91CF911F910F91FF90EF90DF904E
:100A5000CF90BF9008951F920F920FB60F9211245E
:100A60002F933F934F935F936F937F938F939F93B6
:100A7000AF93BF93EF93FF938CE591E00E94320117
:100A8000FF91EF91BF91AF919F918F917F916F9166
:100A90005F914F913F912F910F900FBE0F901F903C
:100AA00018951F920F920FB60F9211242F938F93C8
:100AB0009F93EF93FF93E0916C01F0916D01808122
:100AC000E0917201F091730182FD1BC090818091D1
:100AD00075018F5F8F7320917601821741F0E0914D
:100AE0007501F0E0E45AFE4F958F80937501FF91F8
:100AF000EF919F918F912F910F900FBE0F901F90AC
:100B000018958081F4CF1F920F920FB60F92112487
:100B10002F933F938F939F93AF93BF9380914D01FA
:100B200090914E01A0914F01B091500130914C0134
:100B300023E0230F2D3758F50196A11DB11D2093F9
:100B40004C0180934D0190934E01A0934F01B093BF
:100B500050018091510190915201A0915301B091A7
:100B600054010196A11DB11D809351019093520132
:100B7000A0935301B0935401BF91AF919F918F9176
:100B80003F912F910F900FBE0F901F90189526E860
:100B9000230F0296A11DB11DD2CFECE5F1E0138227
:100BA000128288EE93E0A0E0B0E084839583A68370
:100BB000B78387E091E09183808385EC90E095870F
:100BC000848784EC90E09787868780EC90E0918B17
:100BD000808B81EC90E0938B828B82EC90E0958B04
:100BE000848B86EC90E0978B868B118E128E138E01
:100BF000148EE9EFF1E016821782108611861286B4
:100C000013861486158616861786108A118A128A0C
:100C1000138A148A158A0895789484B5826084BDF5
:100C200084B5816084BD85B5826085BD85B58160F0
:100C300085BD80916E00816080936E00109281006E
:100C40008091810082608093810080918100816029
:100C500080938100809180008160809380008091EA
:100C6000B10084608093B1008091B0008160809376
:100C7000B00080917A00846080937A0080917A003D
:100C8000826080937A0080917A00816080937A00FC
:100C900080917A00806880937A001092C10010924F
:100CA0003B0210923C0210923D0210923E021092C2
:100CB000FB011092FC011092FD011092FE0168EB05
:100CC0007BE080E090E00E94EB0260ED77E080E066
:100CD00090E00E94AC020E948C000E94DF026093B0
:100CE000FB017093FC018093FD019093FE0189E26A
:100CF00091E00E94D7036AE070E080E090E00E94FB
:100D0000EB0281E080930F0280E00E9412038823AF
:100D1000F1F08BE391E00E94D70387E291E00E941B
:100D2000D70387E291E00E94D70387E291E00E9417
:100D3000D70387E291E00E94D70382E491E00E940A
:100D4000D7036AE070E080E090E00E94EB0262E08E
:100D50008DE00E94410262E08CE00E94410262E06C
:100D60008BE00E94410262E08AE00E94410261E061
:100D700089E00E94410261E088E00E94410261E056
:100D800087E00E94410261E086E00E94410261E04A
:100D900085E00E94410261E084E00E94410261E03E
:100DA00083E00E94410261E082E00E94410261E032
:100DB00089E00E94130261E088E00E94130260E073
:100DC00087E00E94130261E086E00E94130261E066
:100DD00085E00E94130261E084E00E94130260E05B
:100DE00083E00E94130280E00E9472028536910522
:100DF0005CF061E085E00E94130261E089E00E94FE
:100E0000130281E08093010181E00E9472029093BD
:100E1000570180935601853691050CF45EC061E060
:100E200084E00E94130261E088E00E94130281E0E6
:100E30008093000168EE73E080E090E00E94AC02D5
:100E400061E086E00E94130260E082E00E941302EB
:100E50000E948C0081E080930201C0E0D0E001E0BC
:100E60000E94DF02C0905801D0905901E0905A01D1
:100E7000F0905B016C197D098E099F096639710537
:100E80008105910508F4A4C00E94DF026093580117
:100E90007093590180935A0190935B0161E070E077
:100EA00080E090E00E94EB020E94DF026093FB0171
:100EB0007093FC018093FD019093FE018BE391E020
:100EC0000E94D70387E291E00E94D703C12CD12C66
:100ED000760110E0B12C20E01DC080910101882333
:100EE00009F4A8CF61E083E00E94130261E087E08B
:100EF0000E94130281E0809355019CCF81E0C816C7
:100F0000D104E104F10439F38C2D0E94EA0121E0BF
:100F1000892B09F3822F0B2C01C0880F0A94EAF762
:100F2000182BB39488E0B81631F08DE0C816D104C0
:100F3000E104F10469F4612F70E090E080E04AE0A0
:100F40000E94720385E291E00E94D703B12C10E069
:100F500061E070E080E090E00E94EB028FEFC81A41
:100F6000D80AE80AF80A8EE0C816D104E104F104B0
:100F700029F661E070E080E090E00E94EB0287E2F9
:100F800091E00E94D70310E0812F0E947202BC0101
:100F9000990F880B990B97FFB0C00E94B60385E2AA
:100FA00091E00E94D7031F5F163071F787E291E04E
:100FB0000E94D70387E291E00E94D70382E491E088
:100FC0000E94D70361E070E080E090E00E94EB02B5
:100FD000609102018AE00E94380480930201882314
:100FE00009F49BC080E00E9472022091010121114E
:100FF00005C08536910514F000930101209101018F
:10100000222329F08436910514F41092010181E025
:101010000E9472027C019093570180935601809147
:101020000001811126C085E6E816F10414F1009351
:10103000000161E084E00E94130261E088E00E9408
:10104000130261E083E00E94130261E087E00E94E6
:1010500013020093550161E082E00E94130268EEE2
:1010600073E080E090E00E94AC0260E082E00E94C9
:10107000130280910001882331F184E6E816F1041F
:1010800014F51092000160E084E00E94130260E019
:1010900088E00E94130260E083E00E94130260E097
:1010A00087E00E9413021092550161E082E00E94E5
:1010B000130268EE73E080E090E00E94AC0260E012
:1010C00082E00E94130268E572E080E090E00E94F6
:1010D000AC028091020161E0811101C060E086E014
:1010E0000E941302209709F4BBCE0E941E018823A0
:1010F00009F4B6CE0E940000B3CE4AE00E9472030B
:101100004ECF60E085E00E94130260E014C060E012
:1011100083E00E94130260E04CC0609101018DE009
:101120000E943804809301018111EBCF61E085E0DA
:101130000E94130261E089E00E94130261E082E0F4
:101140000E94130268EE73E080E090E00E94AC021F
:1011500060E082E00E941302609100018CE00E9436
:10116000380480930001811116C061E084E00E9480
:10117000130261E088E00E94130261E082E00E94B5
:10118000130268EE73E080E090E00E94AC0260E041
:1011900082E00E941302609155018BE00E943804A6
:1011A000809355018111B3CF61E083E00E94130267
:1011B00061E087E00E9413028CCFA1E21A2EAA1BE5
:1011C000BB1BFD010DC0AA1FBB1FEE1FFF1FA217F7
:1011D000B307E407F50720F0A21BB30BE40BF50BF4
:1011E000661F771F881F991F1A9469F7609570957D
:1011F000809590959B01AC01BD01CF010895EE0F44
:0E120000FF1F0590F491E02D0994F894FFCFA4
:10120E00010101000000005401B400E100A101122F
:10121E0001F00004015F564D44504500564D4450B8
:10122E00455F003A323A007C00564D4450565F31CD
:10123E007C315F564D4450560D0A00564D44505267
:0C124E005F005F564D4450520D0A000036
:107E0000112484B714BE81FFF0D085E080938100F7
:107E100082E08093C00088E18093C10086E0809377
:107E2000C20080E18093C4008EE0C9D0259A86E02C
:107E300020E33CEF91E0309385002093840096BBD3
:107E4000B09BFECF1D9AA8958150A9F7CC24DD24C4
:107E500088248394B5E0AB2EA1E19A2EF3E0BF2EE7
:107E6000A2D0813461F49FD0082FAFD0023811F036
:107E7000013811F484E001C083E08DD089C08234E0
:107E800011F484E103C0853419F485E0A6D080C0E4
:107E9000853579F488D0E82EFF2485D0082F10E0AE
:107EA000102F00270E291F29000F111F8ED06801E7
:107EB0006FC0863521F484E090D080E0DECF843638
:107EC00009F040C070D06FD0082F6DD080E0C81688
:107ED00080E7D80618F4F601B7BEE895C0E0D1E017
:107EE00062D089930C17E1F7F0E0CF16F0E7DF06D8
:107EF00018F0F601B7BEE89568D007B600FCFDCFD4
:107F0000A601A0E0B1E02C9130E011968C91119780
:107F100090E0982F8827822B932B1296FA010C0160
:107F200087BEE89511244E5F5F4FF1E0A038BF0790
:107F300051F7F601A7BEE89507B600FCFDCF97BE46
:107F4000E89526C08437B1F42ED02DD0F82E2BD052
:107F50003CD0F601EF2C8F010F5F1F4F84911BD097
:107F6000EA94F801C1F70894C11CD11CFA94CF0C13
:107F7000D11C0EC0853739F428D08EE10CD085E9AC
:107F80000AD08FE07ACF813511F488E018D01DD067
:107F900080E101D065CF982F8091C00085FFFCCF94
:107FA0009093C60008958091C00087FFFCCF809118
:107FB000C00084FD01C0A8958091C6000895E0E648
:107FC000F0E098E1908380830895EDDF803219F02E
:107FD00088E0F5DFFFCF84E1DECF1F93182FE3DFCA
:107FE0001150E9F7F2DF1F91089580E0E8DFEE27F6
:047FF000FF270994CA
:027FFE00040479
:0400000300007E007B
:00000001FF