:100000000C9462000C948A000C948A000C948A0070
:100010000C948A000C948A000C948A000C948A0038
:100020000C948A000C948A000C948A000C948A0028
:100030000C948A000C948A000C948A000C948A0018
:100040000C946D040C948A000C943B040C941504DD
:100050000C948A000C948A000C948A000C948A00F8
:100060000C948A000C948A000000000024002700F1
:100070002A0000000000250028002B0000000000DE
:1000800023002600290004040404040404040202DA
:100090000202020203030303030301020408102007
:1000A0004080010204081020010204081020000012
:1000B0000008000201000003040700000000000027
:1000C0000000B70411241FBECFEFD8E0DEBFCDBFC4
:1000D00022E0AEE4B1E001C01D92A934B207E1F71D
:1000E00011E0A0E0B1E0E4E8F3E102C005900D9278
:1000F000AE34B107D9F710E0C2E6D0E004C02197D2
:10010000FE010E94BA09C136D107C9F70E94F60460
:100110000C94C0090C940000AF92BF92CF92DF9272
:10012000EF92FF920F931F93CF93DF936C017B01AC
:100130008B01040F151FEB015E01AE18BF08C0173D
:10014000D10759F06991D601ED91FC910190F081B0
:10015000E02DC6010995892B79F7C501DF91CF9173
:100160001F910F91FF90EF90DF90CF90BF90AF90D5
:100170000895FC01538D448D252F30E0842F90E0AD
:10018000821B930B541710F0CF9608950197089592
:10019000FC01918D828D981761F0A28DAE0FBF2F5B
:1001A000B11D5D968C91928D9F5F9F73928F90E0B1
:1001B00008958FEF9FEF0895FC01918D828D981720
:1001C00031F0828DE80FF11D858D90E008958FEF5D
:1001D0009FEF0895FC01918D228D892F90E0805C26
:1001E0009F4F821B91098F739927089586E691E0AE
:1001F0000E94EA0021E0892B09F420E0822F089573
:1002000080E090E0892B29F00E94F60081110C9487
:1002100000000895FC01A48DA80FB92FB11DA35AA9
:10022000BF4F2C91848D90E001968F739927848F16
:10023000A689B7892C93A089B1898C918370806439
:100240008C93938D848D981306C00288F389E02DDA
:1002500080818F7D80830895EF92FF920F931F938B
:10026000CF93DF93EC0181E0888F9B8D8C8D981369
:100270001AC0E889F989808185FF15C09FB7F89475
:10028000EE89FF896083E889F989808183708064C1
:1002900080839FBF81E090E0DF91CF911F910F910C
:1002A000FF90EF900895F62E0B8D10E00F5F1F4F1B
:1002B0000F731127E02E8C8D8E110CC00FB607FC2A
:1002C000FACFE889F989808185FFF5CFCE010E94B8
:1002D0000A01F1CFEB8DEC0FFD2FF11DE35AFF4F1B
:1002E000F0829FB7F8940B8FEA89FB898081806246
:1002F000CFCFCF93DF93EC01888D8823B9F0AA8903
:10030000BB89E889F9898C9185FD03C0808186FDD0
:100310000DC00FB607FCF7CF8C9185FFF2CF80811F
:1003200085FFEDCFCE010E940A01E9CFDF91CF9189
:100330000895833081F028F4813099F08230A9F05B
:1003400008958730A9F08830C9F08430B1F48091E5
:1003500080008F7D03C0809180008F778093800024
:10036000089584B58F7784BD089584B58F7DFBCFC4
:100370008091B0008F778093B00008958091B00095
:100380008F7DF9CFCF93DF93282F30E0F901E2552D
:10039000FF4F8491F901E656FF4FD491F901EA57D6
:1003A000FF4FC491CC23A1F081110E949901EC2F41
:1003B000F0E0EE0FFF1FE458FF4FA591B491EC91D0
:1003C000ED2381E090E009F480E0DF91CF91089582
:1003D00080E090E0FACF1F93CF93DF93282F30E097
:1003E000F901E255FF4F8491F901E656FF4FD49190
:1003F000F901EA57FF4FC491CC23A9F0162F8111C0
:100400000E949901EC2FF0E0EE0FFF1FEE58FF4F16
:10041000A591B4918FB7F894EC91111108C0D095C3
:10042000DE23DC938FBFDF91CF911F910895DE2BE8
:10043000F8CFCF93DF9390E0FC01E656FF4F249175
:100440008A579F4FFC0184918823D1F090E0880F58
:10045000991FFC01E859FF4FA591B491FC01EE589A
:10046000FF4FC591D491623071F49FB7F8943C91DD
:10047000822F809583238C93E8812E2B28839FBF26
:10048000DF91CF9108958FB7F894EC912E2B2C9398
:100490008FBFF6CF8E3008F08E50877080648093C7
:1004A0007C0080917A00806480937A0080917A0049
:1004B00086FDFCCF809178009091790008953FB738
:1004C000F8948091530190915401A0915501B091FD
:1004D000560126B5A89B05C02F3F19F00196A11D16
:1004E000B11D3FBFBA2FA92F982F8827BC01CD017E
:1004F000620F711D811D911D42E0660F771F881FDD
:10050000991F4A95D1F708958F929F92AF92BF920B
:10051000CF92DF92EF92FF926B017C010E945F020B
:100520004B015C01C114D104E104F104B9F00E9453
:100530005F02681979098A099B09683E7340810541
:10054000910580F321E0C21AD108E108F10888EE94
:10055000880E83E0981EA11CB11CE4CFFF90EF90A1
:10056000DF90CF90BF90AF909F908F9008952FB75E
:10057000F89460914F0170915001809151019091D8
:1005800052012FBF08958F929F92AF92BF92CF9248
:10059000DF92EF92FF926B017C010E94B7024B0148
:1005A0005C01C80CD91CEA1CFB1C0E94B702681530
:1005B00079058A059B0528F0C616D706E806F906D0
:1005C000A0F7FF90EF90DF90CF90BF90AF909F90FB
:1005D0008F9008958F929F92AF92BF92CF92DF92A9
:1005E000EF92FF92811135C00E94B702C0900502C0
:1005F000D0900602E0900702F09008029B01AC0147
:100600002C193D094E095F0969017A0131E2C316CF
:10061000D104E104F104E8F40E94B7024B015C014B
:10062000DC01CB018C199D09AE09BF096C017D016C
:1006300091E2C90ED11CE11CF11C0E94B7026815A1
:1006400079058A059B0528F0C616D706E806F9063F
:10065000A0F70E94B7026093050270930602809390
:1006600007029093080281E0FF90EF90DF90CF9017
:10067000BF90AF909F908F900895FC010190002053
:10068000E9F73197AF01481B590BBC0186E691E0B1
:100690000C948C008F929F92AF92BF920F931F93F6
:1006A000CF93DF93CDB7DEB7A1970FB6F894DEBF37
:1006B0000FBECDBF19A2423008F44AE08E010F5D93
:1006C0001F4F842E912CB12CA12CA50194010E94C6
:1006D0009809E62FB901CA01EA30F4F4E05DD801C7
:1006E000EE938D01232B242B252B79F790E080E0CE
:1006F000109719F0CD010E943D03A1960FB6F89412
:10070000DEBF0FBECDBFDF91CF911F910F91BF9084
:10071000AF909F908F900895E95CE1CF0C943D03DA
:1007200088E191E00E943D038BE491E00C943D034D
:10073000CF92DF92EF92FF92CF93DF936C01990FEC
:10074000EE08FF08F7FE19C06DE286E691E00E9410
:100750002C01EC0166277727CB016C197D098E09E6
:100760009F094AE00E944A038C0F9D1FDF91CF91A1
:10077000FF90EF90DF90CF9008954AE0C701B60157
:10078000DF91CF91FF90EF90DF90CF900C944A03D0
:10079000CF92DF92EF92FF92CF93DF93C82F0E9408
:1007A000B7026B017C018FE191E00E948E036C2FF8
:1007B00070E090E080E04AE00E944A0386E291E027
:1007C0000E948E034AE0C701B6010E944A0388E2F4
:1007D00091E00E948E03C3E0D2E08E819F81A885C4
:1007E000B985A7019601281B390B4A0B5B0BCA017F
:1007F000B9014AE00E944A0388E291E00E948E0318
:100800006E817F8188859985CA84DB84EC84FD8430
:100810006C197D098E099F094AE0DF91CF91FF9005
:10082000EF90DF90CF900C944A031F920F920FB677
:100830000F9211242F933F934F935F936F937F9366
:100840008F939F93AF93BF93EF93FF9386E691E0CF
:100850000E940A01FF91EF91BF91AF919F918F91FB
:100860007F916F915F914F913F912F910F900FBEAC
:100870000F901F9018951F920F920FB60F92112490
:100880002F938F939F93EF93FF93E0917601F091D5
:1008900077018081E0917C01F0917D0182FD1BC098
:1008A000908180917F018F5F8F73209180018217EB
:1008B00041F0E0917F01F0E0EA59FE4F958F80937F
:1008C0007F01FF91EF919F918F912F910F900FBE1C
:1008D0000F901F9018958081F4CF1F920F920FB642
:1008E0000F9211242F933F938F939F93AF93BF93B6
:1008F00080914F0190915001A0915101B09152010E
:1009000030914E0123E0230F2D3758F50196A11D9C
:10091000B11D20934E0180934F0190935001A093FD
:100920005101B09352018091530190915401A091D3
:100930005501B09156010196A11DB11D809353013F
:1009400090935401A0935501B0935601BF91AF917C
:100950009F918F913F912F910F900FBE0F901F90FD
:10096000189526E8230F0296A11DB11DD2CFE6E609
:10097000F1E01382128288EE93E0A0E0B0E084837D
:100980009583A683B7838AE091E09183808385EC89
:1009900090E09587848784EC90E09787868780EC49
:1009A00090E0918B808B81EC90E0938B828B82EC3A
:1009B00090E0958B848B86EC90E0978B868B118EE4
:1009C000128E138E148EE3E0F2E0168217821086E8
:1009D0001186128613861486158616861786108A47
:1009E000118A128A138A148A158A0895789484B514
:1009F000826084BD84B5816084BD85B5826085BD1B
:100A000085B5816085BD80916E00816080936E00A8
:100A1000109281008091810082608093810080919A
:100A2000810081608093810080918000816080934B
:100A300080008091B10084608093B1008091B0000B
:100A400081608093B00080917A00846080937A0006
:100A500080917A00826080937A0080917A00816030
:100A600080937A0080917A00806880937A00109257
:100A7000C100109245021092460210924702109255
:100A8000480210920502109206021092070210927C
:100A9000080268EB7BE080E090E00E94C30260ED1A
:100AA00077E080E090E00E948402E0917601F0918E
:100AB000770182E08083E0917201F09173011082EE
:100AC000E0917401F091750180E1808310927E01C4
:100AD000E0917A01F0917B0186E08083E0917801DA
:100AE000F0917901808180618083E0917801F091BB
:100AF0007901808188608083E0917801F0917901AB
:100B0000808180688083E0917801F0917901808113
:100B10008F7D80830E94B702609305027093060266
:100B200080930702909308028AE291E00E948E036C
:100B30006AE070E080E090E00E94C30281E0809370
:100B4000190280E00E94EA028823F1F08CE391E030
:100B50000E948E0383E491E00E948E0383E491E07F
:100B60000E948E0383E491E00E948E0383E491E06F
:100B70000E948E0385E491E00E948E036AE070E09B
:100B800080E090E00E94C30262E08DE00E941902C2
:100B900062E08CE00E94190262E08BE00E94190280
:100BA00062E08AE00E94190261E089E00E94190275
:100BB00061E088E00E94190261E087E00E9419026A
:100BC00061E086E00E94190261E085E00E9419025E
:100BD00061E084E00E94190261E083E00E94190252
:100BE00061E082E00E9419028EE00E944A0285368E
:100BF00091050CF493C081E090E090935F018093A5
:100C00005E018FE00E944A02853691050CF48BC08C
:100C100081E090E090935D0180935C0168EE73E069
:100C200080E090E00E94840281E0809301011092B4
:100C3000610110925A0180930501809357018093BE
:100C4000040180935901809303018093020161E0C4
:100C500086E00E94EB0161E089E00E94EB0161E027
:100C600085E00E94EB0160E087E00E94EB0160E01C
:100C700083E00E94EB0161E088E00E94EB0161E00B
:100C800084E00E94EB016624639484EF882E99240B
:100C90009394A12CB12C00E010E077247394C1E070
:100CA000D0E00E94B702C0906201D0906301E09052
:100CB0006401F09065016C197D098E099F09663900
:100CC00071058105910508F498C00E94B7026093F0
:100CD000620170936301809364019093650161E008
:100CE00070E080E090E00E94C3020E94B70260932F
:100CF00005027093060280930702909308028CE32A
:100D000091E00E948E0383E491E00E948E03412CC7
:100D1000C12CD12C7601512C20E016C010925F011D
:100D200010925E016ECF10925D0110925C0176CF41
:100D300081E0C816D104E104F10471F38C2D0E9406
:100D4000C20121E0892B41F3822F042C01C0880FBE
:100D50000A94EAF7582A439488E0481631F08DE067
:100D6000C816D104E104F10469F4652D70E090E047
:100D700080E04AE00E944A0388E291E00E948E03EC
:100D8000412C512C61E070E080E090E00E94C302B1
:100D90008FEFC81AD80AE80AF80A8EE0C816D104FC
:100DA000E104F10429F661E070E080E090E00E9447
:100DB000C30283E491E00E948E03F12C8F2D0E94E8
:100DC0004A020E94980388E291E00E948E03F39405
:100DD00086E0F812F3CF83E491E00E948E0383E46F
:100DE00091E00E948E0385E491E00E948E0361E011
:100DF00070E080E090E00E94C3026CE271E080E06D
:100E000090E00E948402F09005016F2D89E00E941D
:100E1000EB016F2D85E00E94EB01F09061016F2DD9
:100E200087E00E94EB016F2D83E00E94EB01F090C0
:100E300004016F2D88E00E94EB016F2D84E00E9479
:100E4000EB018AE00E94C20121E0009709F420E052
:100E500020936001892B09F05FC2809103018823F0
:100E600039F08091020186258093020110920301DE
:100E700080910201809301018092110290921202EE
:100E8000A0921302B0921402109215021092160250
:100E900010921702109218028091090290910A0292
:100EA000A0910B02B0910C0280930D0290930E0260
:100EB000A0930F02B09310020E94B7026093090240
:100EC00070930A0280930B0290930C0280E00E94C0
:100ED000EA02882309F44FC081E00E94C80383E43A
:100EE00091E00E948E038091010190E00E9498039E
:100EF00083E491E00E948E038091020190E00E94C1
:100F0000980383E491E00E948E038091600190E059
:100F10000E94980383E491E00E948E0380915E0119
:100F200090915F010E94980383E491E00E948E03F8
:100F300080915C0190915D010E94980383E491E0AF
:100F40000E948E038091610190E00E94980383E4E7
:100F500091E00E948E038091040190E00E9498032A
:100F600083E491E00E948E038091050190E00E944D
:100F700098030E94900362E070E080E090E00E949D
:100F8000C3020E94B7026093090270930A02809321
:100F90000B0290930C02F09001016F2D86E00E94ED
:100FA000EB018EE00E944A0285369105DCF1D09378
:100FB0005F01C0935E018FE00E944A028536910571
:100FC000B4F1D0935D01C0935C01FF2009F454C0DB
:100FD00080915E0190915F01892B99F180915C0174
:100FE00090915D01892B41F180916101882351F03D
:100FF00060E087E00E94EB0160E083E00E94EB018B
:1010000010926101709204017092050101151105A1
:1010100009F447CE0E94F600882309F442CE0E94CC
:1010200000003FCE10925F0110925E01C4CF10927B
:101030005D0110925C01C9CF7092610110920401B0
:10104000E3CF61E089E00E94EB0164E670E080E0BC
:1010500090E00E94840260E089E00E94EB0164E677
:1010600070E080E090E00E9484028091610188231A
:1010700069F210926101CACF8BE00E94C20121E0A7
:10108000009709F420E020936001892B09F047C103
:1010900080915B01882339F080915A0186258093E5
:1010A0005A0110925B0180915A01809361018092F4
:1010B000110290921202A0921302B09214021092A6
:1010C00015021092160210921702109218028091C7
:1010D000090290910A02A0910B02B0910C02809338
:1010E0000D0290930E02A0930F02B09310020E9483
:1010F000B7026093090270930A0280930B029093E7
:101100000C0280E00E94EA028823B9F083E00E948A
:10111000C80383E491E00E948E038091610190E016
:101120000E94980383E491E00E948E0380915A010B
:1011300090E00E9498030E94900362E070E080E0DB
:1011400090E00E94C3020E94B7026093090270936C
:101150000A0280930B0290930C02D09061016D2DD6
:1011600087E00E94EB016D2D83E00E94EB01E0908F
:101170005E01F0905F01DD2009F47EC0EA94EF2863
:1011800009F075C080910501882309F470C0809131
:101190000401882309F459C080921102909212022E
:1011A000A0921302B092140210921502109216022D
:1011B00010921702109218028091090290910A026F
:1011C000A0910B02B0910C0280930D0290930E023D
:1011D000A0930F02B09310020E94B702609309021D
:1011E00070930A0280930B0290930C0280E00E949D
:1011F000EA028823C1F082E00E94C80383E491E000
:101200000E948E0380915E0190915F010E9498037D
:1012100083E491E00E948E038091050190E00E949A
:1012200098030E94900362E070E080E090E00E94EA
:10123000C3020E94B7026093090270930A0280936E
:101240000B0290930C021092040180915E01909128
:101250005F01892B09F0DACE1092610160E087E02E
:101260000E94EB0160E083E00E94EB01CFCE109280
:10127000610110925A01E9CF8CE00E94C20121E085
:10128000009709F420E020936001892B09F04AC0FF
:1012900080910001882339F080915901862580933F
:1012A00059011092000180915901809304018DE051
:1012B0000E94C20121E0009709F420E02093600120
:1012C000892B99F580915801882339F08091570135
:1012D0008625809357011092580180915701809381
:1012E0000501EF2809F092CE882309F48FCE61E042
:1012F00089E00E94EB0164E670E080E090E00E94EB
:10130000840260E089E00E94EB0164E670E080E026
:1013100090E00E9484027ACE70920301A9CD70926F
:101320005B01C1CE70920001BECF70925801D5CF43
:10133000A1E21A2EAA1BBB1BFD010DC0AA1FBB1FD9
:10134000EE1FFF1FA217B307E407F50720F0A21B4B
:10135000B30BE40BF50B661F771F881F991F1A94B8
:1013600069F760957095809590959B01AC01BD01E2
:10137000CF010895EE0FFF1F0590F491E02D099421
:04138000F894FFCF0F
:10138400010101010101000000002C018C00B900E1
:101394007901EA00C800DC005F564D445045005610
:1013A4004D4450455F003A323A00564D4450565F22
:1013B400317C315F564D4450560D0A00564D445011
:0E13C400525F007C005F564D4450520D0A00EF
:00000001FF
