:100000000C9462000C948A000C948A000C948A0070
:100010000C948A000C948A000C948A000C948A0038
:100020000C948A000C948A000C948A000C948A0028
:100030000C948A000C948A000C948A000C948A0018
:100040000C9409040C948A000C94D7030C94B1030B
:100050000C948A000C948A000C948A000C948A00F8
:100060000C948A000C948A000000000024002700F1
:100070002A0000000000250028002B0000000000DE
:1000800023002600290004040404040404040202DA
:100090000202020203030303030301020408102007
:1000A0004080010204081020010204081020000012
:1000B0000008000201000003040700000000000027
:1000C0000000530411241FBECFEFD8E0DEBFCDBF28
:1000D00022E0AEE4B1E001C01D92A934B207E1F71D
:1000E00011E0A0E0B1E0E2E0F1E102C005900D9284
:1000F000AE34B107D9F710E0C2E6D0E004C02197D2
:10010000FE010E947908C136D107C9F70E94920406
:100110000C947F080C940000AF92BF92CF92DF92B4
:10012000EF92FF920F931F93CF93DF936C017B01AC
:100130008B01040F151FEB015E01AE18BF08C0173D
:10014000D10759F06991D601ED91FC910190F081B0
:10015000E02DC6010995892B79F7C501DF91CF9173
:100160001F910F91FF90EF90DF90CF90BF90AF90D5
:100170000895FC01538D448D252F30E0842F90E0AD
:10018000821B930B541710F0CF9608950197089592
:10019000FC01918D828D981761F0A28DAE0FBF2F5B
:1001A000B11D5D968C91928D9F5F9F73928F90E0B1
:1001B00008958FEF9FEF0895FC01918D828D981720
:1001C00031F0828DE80FF11D858D90E008958FEF5D
:1001D0009FEF0895FC01918D228D892F90E0805C26
:1001E0009F4F821B91098F739927089586E691E0AE
:1001F0000E94EA0021E0892B09F420E0822F089573
:1002000080E090E0892B29F00E94F60081110C9487
:1002100000000895FC01A48DA80FB92FB11DA35AA9
:10022000BF4F2C91848D90E001968F739927848F16
:10023000A689B7892C93A089B1898C918370806439
:100240008C93938D848D981306C00288F389E02DDA
:1002500080818F7D80830895EF92FF920F931F938B
:10026000CF93DF93EC0181E0888F9B8D8C8D981369
:100270001AC0E889F989808185FF15C09FB7F89475
:10028000EE89FF896083E889F989808183708064C1
:1002900080839FBF81E090E0DF91CF911F910F910C
:1002A000FF90EF900895F62E0B8D10E00F5F1F4F1B
:1002B0000F731127E02E8C8D8E110CC00FB607FC2A
:1002C000FACFE889F989808185FFF5CFCE010E94B8
:1002D0000A01F1CFEB8DEC0FFD2FF11DE35AFF4F1B
:1002E000F0829FB7F8940B8FEA89FB898081806246
:1002F000CFCFCF93DF93EC01888D8823B9F0AA8903
:10030000BB89E889F9898C9185FD03C0808186FDD0
:100310000DC00FB607FCF7CF8C9185FFF2CF80811F
:1003200085FFEDCFCE010E940A01E9CFDF91CF9189
:100330000895833081F028F4813099F08230A9F05B
:1003400008958730A9F08830C9F08430B1F48091E5
:1003500080008F7D03C0809180008F778093800024
:10036000089584B58F7784BD089584B58F7DFBCFC4
:100370008091B0008F778093B00008958091B00095
:100380008F7DF9CFCF93DF93282F30E0F901E2552D
:10039000FF4F8491F901E656FF4FD491F901EA57D6
:1003A000FF4FC491CC23A1F081110E949901EC2F41
:1003B000F0E0EE0FFF1FE458FF4FA591B491EC91D0
:1003C000ED2381E090E009F480E0DF91CF91089582
:1003D00080E090E0FACF1F93CF93DF93282F30E097
:1003E000F901E255FF4F8491F901E656FF4FD49190
:1003F000F901EA57FF4FC491CC23A9F0162F8111C0
:100400000E949901EC2FF0E0EE0FFF1FEE58FF4F16
:10041000A591B4918FB7F894EC91111108C0D095C3
:10042000DE23DC938FBFDF91CF911F910895DE2BE8
:10043000F8CFCF93DF9390E0FC01E656FF4F249175
:100440008A579F4FFC0184918823D1F090E0880F58
:10045000991FFC01E859FF4FA591B491FC01EE589A
:10046000FF4FC591D491623071F49FB7F8943C91DD
:10047000822F809583238C93E8812E2B28839FBF26
:10048000DF91CF9108958FB7F894EC912E2B2C9398
:100490008FBFF6CF8E3008F08E50877080648093C7
:1004A0007C0080917A00806480937A0080917A0049
:1004B00086FDFCCF809178009091790008953FB738
:1004C000F8948091530190915401A0915501B091FD
:1004D000560126B5A89B05C02F3F19F00196A11D16
:1004E000B11D3FBFBA2FA92F982F8827BC01CD017E
:1004F000620F711D811D911D42E0660F771F881FDD
:10050000991F4A95D1F708958F929F92AF92BF920B
:10051000CF92DF92EF92FF926B017C010E945F020B
:100520004B015C01C114D104E104F104B9F00E9453
:100530005F02681979098A099B09683E7340810541
:10054000910580F321E0C21AD108E108F10888EE94
:10055000880E83E0981EA11CB11CE4CFFF90EF90A1
:10056000DF90CF90BF90AF909F908F9008952FB75E
:10057000F89460914F0170915001809151019091D8
:1005800052012FBF08958F929F92AF92BF92CF9248
:10059000DF92EF92FF926B017C010E94B7024B0148
:1005A0005C01C80CD91CEA1CFB1C0E94B702681530
:1005B00079058A059B0528F0C616D706E806F906D0
:1005C000A0F7FF90EF90DF90CF90BF90AF909F90FB
:1005D0008F900895CF92DF92EF92FF920F931F9327
:1005E000811123C00E94B7020091050210910602FA
:1005F0002091070230910802DC01CB01801B910B96
:10060000A20BB30B81329105A105B10570F401E293
:1006100010E020E030E068017901C81AD90AEA0A3E
:10062000FB0AC701B6010E94C3020E94B702609391
:10063000050270930602809307029093080281E0FE
:100640001F910F91FF90EF90DF90CF900895FC01E4
:1006500001900020E9F73197AF01481B590BBC010D
:1006600086E691E00C948C008F929F92AF92BF929D
:100670000F931F93CF93DF93CDB7DEB7A1970FB63C
:10068000F894DEBF0FBECDBF19A2423008F44AE095
:100690008E010F5D1F4F842E912CB12CA12CA50132
:1006A00094010E945708E62FB901CA01EA30F4F418
:1006B000E05DD801EE938D01232B242B252B79F7B8
:1006C00090E080E0109719F0CD010E942703A196D9
:1006D0000FB6F894DEBF0FBECDBFDF91CF911F9153
:1006E0000F91BF90AF909F908F900895E95CE1CFFC
:1006F0000C942703682F70E090E080E04AE00C94AF
:100700003403CF92DF92EF92FF92CF93DF936C018D
:10071000990FEE08FF08F7FE19C06DE286E691E03A
:100720000E942C01EC0166277727CB016C197D090B
:100730008E099F094AE00E9434038C0F9D1FDF91B0
:10074000CF91FF90EF90DF90CF9008954AE0C701DE
:10075000B601DF91CF91FF90EF90DF90CF900C9496
:1007600034031F920F920FB60F9211242F933F93D1
:100770004F935F936F937F938F939F93AF93BF93A9
:10078000EF93FF9386E691E00E940A01FF91EF91BB
:10079000BF91AF919F918F917F916F915F914F9199
:1007A0003F912F910F900FBE0F901F9018951F92A1
:1007B0000F920FB60F9211242F938F939F93EF9365
:1007C000FF93E0917601F09177018081E0917C01C7
:1007D000F0917D0182FD1BC0908180917F018F5F30
:1007E0008F7320918001821741F0E0917F01F0E04A
:1007F000EA59FE4F958F80937F01FF91EF919F9172
:100800008F912F910F900FBE0F901F9018958081A0
:10081000F4CF1F920F920FB60F9211242F933F9394
:100820008F939F93AF93BF9380914F01909150010D
:10083000A0915101B091520130914E0123E0230F5C
:100840002D3758F50196A11DB11D20934E018093BF
:100850004F0190935001A0935101B09352018091A8
:10086000530190915401A0915501B0915601019608
:10087000A11DB11D8093530190935401A093550184
:10088000B0935601BF91AF919F918F913F912F915E
:100890000F900FBE0F901F90189526E8230F029619
:1008A000A11DB11DD2CFE6E6F1E01382128288EEDF
:1008B00093E0A0E0B0E084839583A683B7838AE0C9
:1008C00091E09183808385EC90E09587848784EC28
:1008D00090E09787868780EC90E0918B808B81EC0D
:1008E00090E0938B828B82EC90E0958B848B86ECEE
:1008F00090E0978B868B118E128E138E148EE3E010
:10090000F2E01682178210861186128613861486EC
:10091000158616861786108A118A128A138A148AF7
:10092000158A0895789484B5826084BD84B5816009
:1009300084BD85B5826085BD85B5816085BD8091AA
:100940006E00816080936E00109281008091810022
:10095000826080938100809181008160809381001A
:10096000809180008160809380008091B1008460DC
:100970008093B1008091B00081608093B00080913D
:100980007A00846080937A0080917A0082608093FC
:100990007A0080917A00816080937A0080917A0059
:1009A000806880937A001092C100109245021092E4
:1009B00046021092470210924802109205021092CD
:1009C0000602109207021092080268EB7BE080E0BA
:1009D00090E00E94C30260ED77E080E090E00E942A
:1009E0008402E0917601F091770182E08083E091CA
:1009F0007201F09173011082E0917401F091750120
:100A000080E1808310927E01E0917A01F0917B0178
:100A100086E08083E0917801F091790180818061A6
:100A20008083E0917801F0917901808188608083F2
:100A3000E0917801F0917901808180688083E09174
:100A40007801F091790180818F7D80830E94B702C7
:100A50006093050270930602809307029093080248
:100A600088E191E00E9478036AE070E080E090E025
:100A70000E94C30281E08093190280E00E94EA0292
:100A80008823F1F08AE291E00E94780381E391E00B
:100A90000E94780381E391E00E94780381E391E072
:100AA0000E94780381E391E00E94780383E391E060
:100AB0000E9478036AE070E080E090E00E94C30248
:100AC00062E08DE00E94190262E08CE00E9419024F
:100AD00062E08BE00E94190262E08AE00E94190243
:100AE00061E089E00E94190261E088E00E94190239
:100AF00061E087E00E94190261E086E00E9419022D
:100B000061E085E00E94190261E084E00E94190220
:100B100061E083E00E94190261E082E00E94190214
:100B200061E089E00E94EB0161E088E00E94EB0156
:100B300060E087E00E94EB0161E086E00E94EB014B
:100B400061E085E00E94EB0161E084E00E94EB013E
:100B500060E083E00E94EB018EE00E944A029093E5
:100B6000600180935F01853691055CF061E085E06E
:100B70000E94EB0161E089E00E94EB0181E080933B
:100B800000018FE00E944A0290935E0180935D0114
:100B9000853691050CF468C061E084E00E94EB01A9
:100BA00061E088E00E94EB0181E08093010168EE42
:100BB00073E080E090E00E94840261E086E00E94A1
:100BC000EB0160E082E00E94EB0181E08093030191
:100BD00080930501809304017724739484EF882E19
:100BE00099249394A12CB12CC0E0D0E001E00E94A4
:100BF000B702C0906201D0906301E0906401F09070
:100C000065016C197D098E099F0966397105810599
:100C1000910508F499C00E94B70260936201709335
:100C20006301809364019093650161E070E080E06E
:100C300090E00E94C3020E94B70260930502709385
:100C4000060280930702909308028AE291E00E94D4
:100C5000780381E391E00E94780310E0612CC12CBD
:100C6000D12C760120E01DC080910001882309F479
:100C70009ECF61E083E00E94EB0161E087E00E948B
:100C8000EB0181E080935C0192CF21E0C216D10498
:100C9000E104F10439F38C2D0E94C20121E0892B7B
:100CA00009F3822F012E01C0880F0A94EAF7682AFF
:100CB0001F5F183031F03DE0C316D104E104F104A8
:100CC00049F4862D0E947A0385E491E00E9478031E
:100CD00010E0612C61E070E080E090E00E94C302CF
:100CE0004FEFC41AD40AE40AF40A5EE0C516D10430
:100CF000E104F10451F661E070E080E090E00E94D0
:100D0000C30281E391E00E94780310E0812F0E94EA
:100D10004A020E94810385E491E00E9478031F5FEC
:100D20001630A1F781E391E00E94780381E391E01E
:100D30000E94780383E391E00E94780361E070E011
:100D400080E090E00E94C3028AE00E94C20121E09C
:100D5000009709F420E020936101892B09F09BC1E1
:100D600080910501882339F08091040187258093C3
:100D70000401109205018091040180930301809287
:100D8000110290921202A0921302B09214021092D9
:100D900015021092160210921702109218028091FA
:100DA000090290910A02A0910B02B0910C0280936B
:100DB0000D0290930E02A0930F02B09310020E94B6
:100DC000B7026093090270930A0280930B0290931A
:100DD0000C0280E00E94EA02882309F49BC00E9472
:100DE000B7026B017C018CE391E00E94780381E003
:100DF0000E947A0383E491E00E9478034AE0C701ED
:100E0000B6010E94340385E491E00E94780380914A
:100E1000090290910A02A0910B02B0910C02A70165
:100E20009601281B390B4A0B5B0BCA01B9014AE03A
:100E30000E94340385E491E00E94780360910902E6
:100E400070910A0280910B0290910C02C0900D02E9
:100E5000D0900E02E0900F02F09010026C197D0904
:100E60008E099F094AE00E94340381E391E00E94C9
:100E700078038091030190E00E94810381E391E077
:100E80000E9478038091040190E00E94810381E335
:100E900091E00E9478038091610190E00E948103BB
:100EA00081E391E00E94780380915F01909160015D
:100EB0000E94810381E391E00E94780380915D01AB
:100EC00090915E010E94810381E391E00E9478038A
:100ED00084E60E947A0381E391E00E947803809186
:100EE0005C0190E00E94810381E391E00E9478031D
:100EF00087E00E947A0381E391E00E94780383E017
:100F00000E947A0387E491E00E94270389E391E03D
:100F10000E94270362E070E080E090E00E94C3023C
:100F20000E94B7026093090270930A0280930B0239
:100F300090930C02E09003016E2D86E00E94EB017D
:100F40008BE00E94C20121E0009709F420E0209389
:100F50006101892B09F0A2C080915B01882339F0DF
:100F600080915A01872580935A0110925B0110915C
:100F70005A0110935C01612F87E00E94EB01612F01
:100F800083E00E94EB018CE00E94C20121E0009707
:100F900009F420E020936101892B09F082C080913F
:100FA0000201882339F080915901872580935901E6
:100FB00010920201F0905901F09201016F2D88E02A
:100FC0000E94EB016F2D84E00E94EB018DE00E94F6
:100FD000C20121E0009709F420E020936101892BF0
:100FE00009F062C080915801882339F0809157013F
:100FF00087258093570110925801F0905701F09285
:1010000000016F2D89E00E94EB016F2D85E00E94A9
:10101000EB01EE2001F18EE00E944A027C019093E8
:10102000600180935F018FE00E944A0290935E010D
:1010300080935D0135E6E316F104C4F08536910531
:1010400054F0112341F060E087E00E94EB0160E082
:1010500083E00E94EB01209709F4C9CD0E94F600BD
:10106000882309F4C4CD0E940000C1CD61E089E06D
:101070000E94EB0164E670E080E090E00E94840250
:1010800060E089E00E94EB0164E670E080E090E0BF
:101090000E948402E0CF009305016DCE00935B01B6
:1010A00066CF0093020186CF00935801A6CFA1E23C
:1010B0001A2EAA1BBB1BFD010DC0AA1FBB1FEE1FD2
:1010C000FF1FA217B307E407F50720F0A21BB30B1D
:1010D000E40BF50B661F771F881F991F1A9469F799
:1010E00060957095809590959B01AC01BD01CF01F5
:1010F0000895EE0FFF1F0590F491E02D0994F894E8
:02110000FFCF1F
:10110200010101010101000000002C018C00B90065
:101112007901EA00C800DC00564D4450565F317C2C
:10112200315F564D4450560D0A00564D4450525FA1
:10113200007C005F564D4450520D0A00564D4450FB
:0E114200455F003A323A005F564D445045007A
:107E0000112484B714BE81FFF0D085E080938100F7
:107E100082E08093C00088E18093C10086E0809377
:107E2000C20080E18093C4008EE0C9D0259A86E02C
:107E300020E33CEF91E0309385002093840096BBD3
:107E4000B09BFECF1D9AA8958150A9F7CC24DD24C4
:107E500088248394B5E0AB2EA1E19A2EF3E0BF2EE7
:107E6000A2D0813461F49FD0082FAFD0023811F036
:107E7000013811F484E001C083E08DD089C08234E0
:107E800011F484E103C0853419F485E0A6D080C0E4
:107E9000853579F488D0E82EFF2485D0082F10E0AE
:107EA000102F00270E291F29000F111F8ED06801E7
:107EB0006FC0863521F484E090D080E0DECF843638
:107EC00009F040C070D06FD0082F6DD080E0C81688
:107ED00080E7D80618F4F601B7BEE895C0E0D1E017
:107EE00062D089930C17E1F7F0E0CF16F0E7DF06D8
:107EF00018F0F601B7BEE89568D007B600FCFDCFD4
:107F0000A601A0E0B1E02C9130E011968C91119780
:107F100090E0982F8827822B932B1296FA010C0160
:107F200087BEE89511244E5F5F4FF1E0A038BF0790
:107F300051F7F601A7BEE89507B600FCFDCF97BE46
:107F4000E89526C08437B1F42ED02DD0F82E2BD052
:107F50003CD0F601EF2C8F010F5F1F4F84911BD097
:107F6000EA94F801C1F70894C11CD11CFA94CF0C13
:107F7000D11C0EC0853739F428D08EE10CD085E9AC
:107F80000AD08FE07ACF813511F488E018D01DD067
:107F900080E101D065CF982F8091C00085FFFCCF94
:107FA0009093C60008958091C00087FFFCCF809118
:107FB000C00084FD01C0A8958091C6000895E0E648
:107FC000F0E098E1908380830895EDDF803219F02E
:107FD00088E0F5DFFFCF84E1DECF1F93182FE3DFCA
:107FE0001150E9F7F2DF1F91089580E0E8DFEE27F6
:047FF000FF270994CA
:027FFE00040479
:0400000300007E007B
:00000001FF