:100000000C9463000C948B000C948B000C948B006C
:100010000C948B000C948B000C948B000C945C055E
:100020000C948B000C948B000C948B000C948B0024
:100030000C948B000C948B000C948B000C948B0014
:100040000C9436060C948B000C9404060C94DE057C
:100050000C948B000C948B000C948B000C948B00F4
:100060000C948B000C948B000000000024002700EF
:100070002A000000000023002600290000000008DC
:10008000000201000003040700000000000000005F
:10009000010204081020408001020408102001021F
:1000A0000408102000000000250028002B00040494
:1000B0000404040404040202020202020303030310
:1000C00003030200800611241FBECFEFD8E0DEBF7D
:1000D000CDBF22E0A0E5B1E001C01D92A036B2077D
:1000E000E1F711E0A0E0B1E0E4E5F9E102C005903C
:1000F0000D92A035B107D9F710E0C3E6D0E004C0F7
:100100002197FE010E94A20CC236D107C9F70E94B6
:10011000BF060C94A80C0C940000AF92BF92CF9233
:10012000DF92EF92FF920F931F93CF93DF936C01B7
:100130007B018B01040F151FEB015E01AE18BF0898
:10014000C017D10759F06991D601ED91FC9101904A
:10015000F081E02DC6010995892B79F7C501DF9162
:10016000CF911F910F91FF90EF90DF90CF90BF90B4
:10017000AF900895FC01538D448D252F30E0842FDE
:1001800090E0821B930B541710F0CF9608950197BF
:100190000895FC01918D828D981761F0A28DAE0FAC
:1001A000BF2FB11D5D968C91928D9F5F9F73928F33
:1001B00090E008958FEF9FEF0895FC01918D828D5F
:1001C000981731F0828DE80FF11D858D90E008952C
:1001D0008FEF9FEF0895FC01918D228D892F90E084
:1001E000805C9F4F821B91098F73992708958DE73B
:1001F00091E00E94EB0021E0892B09F420E0822F9E
:10020000089580E090E0892B29F00E94F700811189
:100210000C9400000895FC01A48DA80FB92FB11D06
:10022000A35ABF4F2C91848D90E001968F7399272C
:10023000848FA689B7892C93A089B1898C9183700A
:1002400080648C93938D848D981306C00288F38903
:10025000E02D80818F7D80830895EF92FF920F9330
:100260001F93CF93DF93EC0181E0888F9B8D8C8D62
:1002700098131AC0E889F989808185FF15C09FB756
:10028000F894EE89FF896083E889F9898081837019
:10029000806480839FBF81E090E0DF91CF911F91C8
:1002A0000F91FF90EF900895F62E0B8D10E00F5FE9
:1002B0001F4F0F731127E02E8C8D8E110CC00FB6BF
:1002C00007FCFACFE889F989808185FFF5CFCE0157
:1002D0000E940B01F1CFEB8DEC0FFD2FF11DE35AC6
:1002E000FF4FF0829FB7F8940B8FEA89FB898081DA
:1002F0008062CFCFCF93DF93EC01888D8823B9F054
:10030000AA89BB89E889F9898C9185FD03C0808120
:1003100086FD0DC00FB607FCF7CF8C9185FFF2CF9D
:10032000808185FFEDCFCE010E940B01E9CFDF91E7
:10033000CF910895833081F028F4813099F0823094
:10034000A9F008958730A9F08830C9F08430B1F45D
:10035000809180008F7D03C0809180008F77809393
:100360008000089584B58F7784BD089584B58F7D0E
:10037000FBCF8091B0008F778093B000089580917B
:10038000B0008F7DF9CFCF93DF93282F30E0F901B4
:10039000E458FF4F8491F901E057FF4FD491F901E0
:1003A000E255FF4FC491CC23A1F081110E949A0124
:1003B000EC2FF0E0EE0FFF1FEE58FF4FA591B49128
:1003C000EC91ED2381E090E009F480E0DF91CF91A2
:1003D000089580E090E0FACF1F93CF93DF93282F0A
:1003E00030E0F901E458FF4F8491F901E057FF4FE5
:1003F000D491F901E255FF4FC491CC23A9F0162FF7
:1004000081110E949A01EC2FF0E0EE0FFF1FEC55D6
:10041000FF4FA591B4918FB7F894EC91111108C0DA
:10042000D095DE23DC938FBFDF91CF911F9108958C
:10043000DE2BF8CFCF93DF9390E0FC01E057FF4F26
:10044000249182559F4FFC0184918823D1F090E044
:10045000880F991FFC01E859FF4FA591B491FC0149
:10046000EC55FF4FC591D491623071F49FB7F89469
:100470003C91822F809583238C93E8812E2B2883B7
:100480009FBFDF91CF9108958FB7F894EC912E2BF9
:100490002C938FBFF6CFCF92DF92EF92FF92CF9344
:1004A0006C0180910601803149F08F3F09F444C00E
:1004B000CF91FF90EF90DF90CF900895E2ECF0E0C5
:1004C000C491C7FDF5CF61E080E10E941A02F12CD2
:1004D000E12CCC23D9F0960150E040E0C23009F085
:1004E0009AC07A0160E970ED83E090E00E94830C8D
:1004F000BA01A901415051096109710993E04F3FC7
:1005000051056105710509F00CF4C1C068E478EE8D
:1005100081E090E0A70196010E94830CBA01A90135
:10052000415051096109710994E0C111B0C085B50C
:10053000887F836085BDB7C080E180930601E2ECCF
:10054000F0E0C491CF3F09F4B3CFC13021F150F0B6
:10055000C23009F43EC0C7FDABCF61E080E10E942C
:100560001A02B9CF14BC15BC84B5826084BD85B5B0
:10057000816085BDEEEBF0E0E491F0E0EE0FFF1F4F
:10058000EC55FF4F85919491E0EAF0E0E491E0931F
:100590007001C0E098CF109280001092810080918D
:1005A00081008860809381008091810081608093C8
:1005B0008100EEEBF0E0E491F0E0EE0FFF1FEC5570
:1005C000FF4F85919491E0EAF0E0E491E0936F01B0
:1005D0007ACF1092B0001092B1008091B00082608A
:1005E0008093B0008091B10081608093B100EEEB08
:1005F000F0E0E491F0E0EE0FFF1FEC55FF4F859126
:10060000949190936E0180936D01E0EAF0E0E491A3
:10061000E0936C0158CF60E072E18AE790E00E94BD
:10062000830CBA01A9014150510961097109C13016
:10063000A1F580918100887F816080938100509333
:100640008900409388008FEF9FEFDC018093750154
:1006500090937601A0937701B093780180916F0019
:10066000826080936F0024CF4093B3008FEF9FEFA1
:10067000DC018093710190937201A0937301B09398
:1006800074018091700082608093700011CF80911E
:10069000B100887F892B8093B100C13081F2C230D4
:1006A00019F3C11105CF47BD8FEF9FEFDC01809398
:1006B000790190937A01A0937B01B0937C018091A2
:1006C0006E00826080936E00F3CE8E3008F08E5004
:1006D0008770806480937C0080917A00806480932E
:1006E0007A0080917A0086FDFCCF8091780090910D
:1006F000790008953FB7F894809155019091560183
:10070000A0915701B091580126B5A89B05C02F3F75
:1007100019F00196A11DB11D3FBFBA2FA92F982F27
:100720008827BC01CD01620F711D811D911D42E022
:10073000660F771F881F991F4A95D1F708958F92EA
:100740009F92AF92BF92CF92DF92EF92FF926B0196
:100750007C010E947A034B015C01C114D104E104C5
:10076000F104B9F00E947A03681979098A099B0992
:10077000683E73408105910580F321E0C21AD108DB
:10078000E108F10888EE880E83E0981EA11CB11CD8
:10079000E4CFFF90EF90DF90CF90BF90AF909F900D
:1007A0008F9008952FB7F894609151017091520184
:1007B00080915301909154012FBF08958F929F9281
:1007C000AF92BF92CF92DF92EF92FF926B017C01CA
:1007D0000E94D2034B015C01C80CD91CEA1CFB1C13
:1007E0000E94D203681579058A059B0528F0C61674
:1007F000D706E806F906A0F7FF90EF90DF90CF90BC
:10080000BF90AF909F908F9008958F929F92AF92DC
:10081000BF92CF92DF92EF92FF92811135C00E947A
:10082000D203C0901C02D0901D02E0901E02F090F6
:100830001F029B01AC012C193D094E095F0969019A
:100840007A0131E2C316D104E104F104E8F40E9414
:10085000D2034B015C01DC01CB018C199D09AE096F
:10086000BF096C017D0191E2C90ED11CE11CF11C94
:100870000E94D203681579058A059B0528F0C616E3
:10088000D706E806F906A0F70E94D20360931C027F
:1008900070931D0280931E0290931F0281E0FF90CF
:1008A000EF90DF90CF90BF90AF909F908F90089582
:1008B0000E94D2036093200270932102809322024F
:1008C000909323020895CF93DF93CAE1D2E084EF9F
:1008D00091E0A0E0B0E08E879F87A88BB98B1A8A41
:1008E0001B8A1C8A1D8A8E819F81A885B9858A876B
:1008F0009B87AC87BD870E94D2036E837F838887E6
:100900009987DF91CF910895FC0101900020E9F7CC
:100910003197AF01481B590BBC018DE791E00C9456
:100920008D008F929F92AF92BF920F931F93CF93A0
:10093000DF93CDB7DEB7A1970FB6F894DEBF0FBE39
:10094000CDBF19A2423008F44AE08E010F5D1F4F5F
:10095000842E912CB12CA12CA50194010E94610C34
:10096000E62FB901CA01EA30F4F4E05DD801EE9354
:100970008D01232B242B252B79F790E080E0109715
:1009800019F0CD010E948404A1960FB6F894DEBF41
:100990000FBECDBFDF91CF911F910F91BF90AF9050
:1009A0009F908F900895E95CE1CF0C94840489E1D5
:1009B00091E00E9484048CE491E00C948404CF9232
:1009C000DF92EF92FF92CF93DF936C01990FEE08C5
:1009D000FF08F7FE19C06DE28DE791E00E942D013E
:1009E000EC0166277727CB016C197D098E099F09D9
:1009F0004AE00E9491048C0F9D1FDF91CF91FF90E0
:100A0000EF90DF90CF9008954AE0C701B601DF91E3
:100A1000CF91FF90EF90DF90CF900C949104CF9204
:100A2000DF92EF92FF92CF93DF93C82F0E94D20301
:100A30006B017C0180E291E00E94D5046C2F70E094
:100A400090E080E04AE00E94910487E291E00E94F9
:100A5000D5044AE0C701B6010E94910489E291E001
:100A60000E94D504CAE1D2E08E819F81A885B98514
:100A7000A7019601281B390B4A0B5B0BCA01B90170
:100A80004AE00E94910489E291E00E94D5046E81BF
:100A90007F8188859985CA84DB84EC84FD846C1908
:100AA0007D098E099F094AE0DF91CF91FF90EF9079
:100AB000DF90CF900C9491041F920F920FB60F927B
:100AC00011242F933F934F935F936F937F938F9353
:100AD0009F93AF93BF93EF93FF9380917101909198
:100AE0007201A0917301B0917401892B8A2B8B2B19
:100AF000D1F190916C01E0916D01F0916E018081D6
:100B0000892780838091710190917201A091730176
:100B1000B0917401181619061A061B069CF48091F0
:100B2000710190917201A0917301B09174010197CC
:100B3000A109B1098093710190937201A09373018F
:100B4000B0937401FF91EF91BF91AF919F918F91FD
:100B50007F916F915F914F913F912F910F900FBEB9
:100B60000F901F90189580910601E2ECF0E0E4915F
:100B70009FEF90930601E13051F030F0E23069F0E0
:100B800060E00E94EC01DECF10926E00F9CF9091F0
:100B90006F009D7F90936F00F3CF909170009D7FC9
:100BA0009093700091E09093B0009091B100987F85
:100BB00094609093B1001092B300E2CF1F920F9215
:100BC0000FB60F9211242F933F934F935F936F9320
:100BD0007F938F939F93AF93BF93EF93FF938DE793
:100BE00091E00E940B01FF91EF91BF91AF919F9116
:100BF0008F917F916F915F914F913F912F910F90C6
:100C00000FBE0F901F9018951F920F920FB60F9264
:100C100011242F938F939F93EF93FF93E0918D0176
:100C2000F0918E018081E0919301F091940182FD19
:100C30001BC09081809196018F5F8F7320919701E7
:100C4000821741F0E0919601F0E0E358FE4F958F56
:100C500080939601FF91EF919F918F912F910F902B
:100C60000FBE0F901F9018958081F4CF1F920F92A6
:100C70000FB60F9211242F933F938F939F93AF93AF
:100C8000BF938091510190915201A0915301B09175
:100C900054013091500123E0230F2D3758F5019670
:100CA000A11DB11D209350018093510190935201D9
:100CB000A0935301B0935401809155019091560136
:100CC000A0915701B09158010196A11DB11D8093CB
:100CD000550190935601A0935701B0935801BF91CD
:100CE000AF919F918F913F912F910F900FBE0F90D9
:100CF0001F90189526E8230F0296A11DB11DD2CF93
:100D0000EDE7F1E01382128288EE93E0A0E0B0E01C
:100D100084839583A683B7838BE091E0918380835E
:100D200085EC90E09587848784EC90E097878687B0
:100D300080EC90E0918B808B81EC90E0938B828BA8
:100D400082EC90E0958B848B86EC90E0978B868B81
:100D5000118E128E138E148EEAE1F2E01682178243
:100D600010861186128613861486158616861786B7
:100D7000108A118A128A138A148A158A089578941F
:100D800084B5826084BD84B5816084BD85B5826090
:100D900085BD85B5816085BD80916E008160809341
:100DA0006E001092810080918100826080938100AA
:100DB00080918100816080938100809180008160BA
:100DC000809380008091B10084608093B100809115
:100DD000B00081608093B00080917A00846080933D
:100DE0007A0080917A00826080937A0080917A0004
:100DF000816080937A0080917A00806880937A0085
:100E00001092C10010925C0210925D0210925E027C
:100E100010925F0210921C0210921D0210921E028C
:100E200010921F0268EB7BE080E090E00E94DE03FE
:100E300060ED77E080E090E00E949F03E0918D01FB
:100E4000F0918E0182E08083E0918901F0918A0126
:100E50001082E0918B01F0918C0180E180831092EF
:100E60009501E0919101F091920186E08083E091FB
:100E70008F01F0919001808180618083E0918F01EA
:100E8000F0919001808188608083E0918F01F091E2
:100E90009001808180688083E0918F01F0919001C2
:100EA00080818F7D80830E94D20360931C027093A7
:100EB0001D0280931E0290931F028BE291E00E941C
:100EC000D5046AE070E080E090E00E94DE0381E0FB
:100ED0008093300280E00E9405048823F1F08DE3C6
:100EE00091E00E94D50484E491E00E94D50484E45A
:100EF00091E00E94D50484E491E00E94D50484E44A
:100F000091E00E94D50486E491E00E94D5046AE055
:100F100070E080E090E00E94DE0362E08DE00E94DD
:100F20001A0262E08CE00E941A0262E08BE00E94EA
:100F30001A0262E08AE00E941A0261E089E00E94DF
:100F40001A0261E088E00E941A0261E087E00E94D4
:100F50001A0261E086E00E941A0261E085E00E94C8
:100F60001A0261E084E00E941A0261E083E00E94BC
:100F70001A0261E082E00E941A0262E08EE00E94A2
:100F80001A0262E08FE00E941A0261E080E10E9492
:100F90001A0261E081E10E941A0284EF91E00E944E
:100FA0004B02C1E0C093050110926601C093640139
:100FB000C0930301C0936501C0930101C093040174
:100FC00061E086E00E94EC0161E082E00E94EC01B9
:100FD00061E087E00E94EC0161E083E00E94EC01A7
:100FE00060E089E00E94EC0160E085E00E94EC0195
:100FF00061E088E00E94EC0161E084E00E94EC0185
:1010000068EE73E080E090E00E949F0388EE93E03A
:101010000E944B02C093020110926701109262017C
:1010200060E087E00E94EC0160E083E00E94EC0158
:1010300061E089E00E94EC0161E085E00E94EC0142
:1010400061E088E00E94EC0161E084E00E94EC0134
:1010500068EE73E080E090E00E949F0360E082E031
:101060000E94EC0162E080E10E941A02109263018A
:101070008EE00E946503853691050CF45EC081E028
:1010800090E090935E0180935D018FE00E94650384
:10109000853691050CF456C081E090E090935C0198
:1010A00080935B0168EE73E080E090E00E949F0314
:1010B000D1E080E0E82E80E0F82EC1E001E010E011
:1010C0000E94D2038090680190906901A0906A010B
:1010D000B0906B01681979098A099B096639710515
:1010E0008105910508F498C00E94D20360936801BD
:1010F0007093690180936A0190936B0161E070E0E5
:1011000080E090E00E94DE030E94D20360931C0204
:1011100070931D0280931E0290931F028DE391E055
:101120000E94D50484E491E00E94D504D12CC12C06
:10113000812C912C540120E016C010925E01109277
:101140005D01A3CF10925C0110925B01ABCF81E0F7
:1011500088169104A104B10471F3882D0E94C30183
:1011600021E0892B41F3822F0C2C01C0880F0A94B7
:10117000EAF7D82AC39488E0C81631F08DE08816C3
:101180009104A104B10469F46D2D70E090E080E059
:101190004AE00E94910489E291E00E94D504C12CAA
:1011A000D12C61E070E080E090E00E94DE038FEFE0
:1011B000881A980AA80AB80A8EE088169104A10431
:1011C000B10429F661E070E080E090E00E94DE0367
:1011D00084E491E00E94D504D12C8D2D0E946503FA
:1011E0000E94DF0489E291E00E94D504D39486E056
:1011F000D812F3CF84E491E00E94D50484E491E016
:101200000E94D50486E491E00E94D50461E070E07C
:1012100080E090E00E94DE0364EF71E080E090E007
:101220000E949F030E94630480E00E9405048823BB
:1012300009F456C085E00E940F0584E491E00E9405
:10124000D5048091050190E00E94DF0484E491E0E0
:101250000E94D5048091040190E00E94DF0484E4A0
:1012600091E00E94D5048091670190E00E94DF0424
:1012700084E491E00E94D5048091660190E00E9490
:10128000DF0484E491E00E94D5048091030190E0A2
:101290000E94DF0484E491E00E94D50480916501FE
:1012A00090E00E94DF0484E491E00E94D5048091E4
:1012B000020190E00E94DF0484E491E00E94D504E2
:1012C0008091640190E00E94DF0484E491E00E9438
:1012D000D5048091630190E00E94DF040E94D7044E
:1012E00062E070E080E090E00E94DE030E9458041B
:1012F000A0900501809104018A1509F48DC1C09365
:10130000630180916301882309F440C061E082E0B9
:101310000E94EC01C09002016C2D89E00E94EC015A
:101320006C2D85E00E94EC01D09067016D2D87E067
:101330000E94EC016D2D83E00E94EC016D2D81E196
:101340000E94EC01B09003016B2D88E00E94EC013B
:101350006B2D84E00E94EC0161E080E10E941A02A2
:1013600068EE73E080E090E00E949F0362E080E11D
:101370000E941A0260E082E00E94EC01D0926201B9
:10138000A0920401B0926101C09260018AE00E94C3
:10139000C30121E0892B09F420E020935F010E9422
:1013A000630480E00E940504882309F456C084E0A9
:1013B0000E940F0584E491E00E94D504809105010C
:1013C00090E00E94DF0484E491E00E94D5048091C3
:1013D000040190E00E94DF0484E491E00E94D504BF
:1013E0008091670190E00E94DF0484E491E00E9414
:1013F000D5048091660190E00E94DF0484E491E0CE
:101400000E94D5048091030190E00E94DF0484E4EF
:1014100091E00E94D5048091650190E00E94DF0474
:1014200084E491E00E94D5048091020190E00E9442
:10143000DF0484E491E00E94D5048091640190E08F
:101440000E94DF0484E491E00E94D504809163014E
:1014500090E00E94DF040E94D70462E070E080E028
:1014600090E00E94DE030E94580480915F01811188
:101470001CC280910101882339F0809104018D27DD
:101480008093040110920101809104018093050171
:101490000E94630480E00E940504882309F44FC081
:1014A00081E00E940F0584E491E00E94D5048091C0
:1014B000050190E00E94DF0484E491E00E94D504DD
:1014C0008091040190E00E94DF0484E491E00E9496
:1014D000D50480915F0190E00E94DF0484E491E0F4
:1014E0000E94D50480915D0190915E010E94DF040D
:1014F00084E491E00E94D50480915B0190915C01AD
:101500000E94DF0484E491E00E94D5048091670189
:1015100090E00E94DF0484E491E00E94D504809171
:10152000030190E00E94DF0484E491E00E94D5046E
:101530008091020190E00E94DF040E94D70462E0E3
:1015400070E080E090E00E94DE030E945804D0909A
:1015500005016D2D86E00E94EC018EE00E9465037E
:10156000853691050CF46DC010935E0100935D010A
:101570008FE00E946503853691050CF467C01093D7
:101580005C0100935B01DD2009F486C080915D0160
:1015900090915E01892B09F463C080915B01909169
:1015A0005C01892B09F457C0809167018111109269
:1015B0006701C0930301C093020164E170E080E021
:1015C00090E00E949F030E94630480E00E94050453
:1015D000882371F086E00E940F0584E491E00E9468
:1015E000D5048091670190E00E94DF040E94D70437
:1015F00062E070E080E090E00E94DE030E94580408
:10160000E114F10409F45CCD0E94F700882309F489
:1016100057CD0E94000054CD9091670180916201E6
:1016200098136DCE9091030180916101981367CE5C
:101630009091020180916001981361CE1092630134
:1016400060CE10925E0110925D0192CF10925C010B
:1016500010925B0198CFC093670110920301ABCF4A
:1016600061E089E00E94EC0164E670E080E090E0D7
:101670000E949F0360E089E00E94EC0164E670E054
:1016800080E090E00E949F0380916701882309F425
:1016900094CF1092670191CF8BE00E94C30121E0AB
:1016A000009709F420E020935F01892B09F000C125
:1016B00080915A01882339F0809166018D278093AB
:1016C000660110925A0180916601809367010E9421
:1016D000630480E00E9405048823B9F083E00E943F
:1016E0000F0584E491E00E94D5048091670190E0A9
:1016F0000E94DF0484E491E00E94D5048091660199
:1017000090E00E94DF040E94D70462E070E080E075
:1017100090E00E94DE030E945804809167018823B4
:1017200009F446C080915D0190915E010197D9F561
:10173000809102018823B9F180910301882349F146
:101740000E94630480E00E9405048823C1F082E0C7
:101750000E940F0584E491E00E94D50480915D0110
:1017600090915E010E94DF0484E491E00E94D50420
:101770008091020190E00E94DF040E94D70462E0A1
:1017800070E080E090E00E94DE030E945804109216
:10179000030180915D0190915E01892B09F030CFAA
:1017A000109267012DCF1092670110926601F1CF60
:1017B0008CE00E94C30121E0009709F420E020930F
:1017C0005F01892B09F077C080910001882339F0EF
:1017D000809165018D2780936501109200018091B1
:1017E0006501809303018DE00E94C30121E0009711
:1017F00009F420E020935F01892B09F05FC08091FC
:101800005901882339F0809164018D278093640108
:101810001092590180916401809302010E94630437
:1018200080E00E9405048823B9F087E00E940F053C
:1018300084E491E00E94D5048091020190E00E942E
:10184000DF0484E491E00E94D5048091030190E0DC
:101850000E94DF040E94D70462E070E080E090E024
:101860000E94DE030E94580480915D0190915E0108
:10187000892B09F0C5CE80910201882309F4C0CEDE
:1018800061E089E00E94EC0164E670E080E090E0B5
:101890000E949F0360E089E00E94EC0164E670E032
:1018A00080E090E00E949F03ABCEC0930101ECCD9D
:1018B000C0935A0108CFC093000191CFC093590142
:1018C000A9CFA1E21A2EAA1BBB1BFD010DC0AA1FA6
:1018D000BB1FEE1FFF1FA217B307E407F50720F099
:1018E000A21BB30BE40BF50B661F771F881F991F14
:1018F0001A9469F760957095809590959B01AC015D
:10190000BD01CF010895052E97FB1EF400940E949F
:101910009A0C57FD07D00E94610C07FC03D04EF4CF
:101920000C949A0C50954095309521953F4F4F4F10
:101930005F4F089590958095709561957F4F8F4F7B
:101940009F4F0895EE0FFF1F0590F491E02D09942D
:04195000F894FFCF39
:10195400010101010101FF000000002D018D00BA09
:10196400007A01EB00C900DD005F564D445045008C
:10197400564D4450455F003A323A00564D44505655
:101984005F317C315F564D4450560D0A00564D442C
:1019940050525F007C005F564D4450520D0A0000C7
:00000001FF
