:100000000C9462000C947F000C947F000C947F0091
:100010000C947F000C947F000C947F000C94B6022B
:100020000C947F000C947F000C947F000C947F0054
:100030000C947F000C947F000C947F000C947F0044
:100040000C9438030C947F000C947F000C947F0078
:100050000C947F000C947F000C947F000C947F0024
:100060000C947F000C947F00000000002400270007
:100070002A000000000023002600290000000008DC
:10008000000201000003040700000000000000005F
:10009000010204081020408001020408102001021F
:1000A0000408102000000000250028002B00040494
:1000B0000404040404040202020202020303030310
:1000C0000303020011241FBECFEFD8E0DEBFCDBF77
:1000D00011E0A0E0B1E0E2EBFDE002C005900D927E
:1000E000A830B107D9F721E0A8E0B1E001C01D9226
:1000F000A433B207E1F70E9482030C94D7060C9454
:100100000000833081F028F4813099F08230A9F02A
:1001100008958730A9F08830C9F08430B1F4809117
:1001200080008F7D03C0809180008F778093800056
:10013000089584B58F7784BD089584B58F7DFBCFF6
:100140008091B0008F778093B00008958091B000C7
:100150008F7DF9CFCF93DF93282F30E0F901E4585A
:10016000FF4F8491F901E057FF4FD491F901E25517
:10017000FF4FC491CC23A1F081110E948100EC2F8C
:10018000F0E0EE0FFF1FEE58FF4FA591B491EC91F8
:10019000ED2381E090E009F480E0DF91CF910895B4
:1001A00080E090E0FACF1F93CF93DF93282F30E0C9
:1001B000F901E458FF4F8491F901E057FF4FD491C2
:1001C000F901E255FF4FC491CC23A9F0162F8111FC
:1001D0000E948100EC2FF0E0EE0FFF1FEC55FF4F67
:1001E000A591B4918FB7F894EC91111108C0D095F6
:1001F000DE23DC938FBFDF91CF911F910895DE2B1B
:10020000F8CFCF93DF9390E0FC01E057FF4F2491AC
:1002100082559F4FFC0184918823D1F090E0880F94
:10022000991FFC01E859FF4FA591B491FC01EC55D1
:10023000FF4FC591D491623071F49FB7F8943C910F
:10024000822F809583238C93E8812E2B28839FBF58
:10025000DF91CF9108958FB7F894EC912E2B2C93CA
:100260008FBFF6CFCF92DF92EF92FF92CF936C01C8
:1002700080910601803149F08F3F09F444C0CF914D
:10028000FF90EF90DF90CF900895E2ECF0E0C49102
:10029000C7FDF5CF61E080E10E940101F12CE12C66
:1002A000CC23D9F0960150E040E0C23009F09AC06A
:1002B0007A0160E970ED83E090E00E949606BA0151
:1002C000A901415051096109710993E04F3F51055E
:1002D0006105710509F00CF4C1C068E478EE81E0B5
:1002E00090E0A70196010E949606BA01A90141502B
:1002F00051096109710994E0C111B0C085B5887FC9
:10030000836085BDB7C080E180930601E2ECF0E038
:10031000C491CF3F09F4B3CFC13021F150F0C230C6
:1003200009F43EC0C7FDABCF61E080E10E9401014E
:10033000B9CF14BC15BC84B5826084BD85B581601D
:1003400085BDEEEBF0E0E491F0E0EE0FFF1FEC5521
:10035000FF4F85919491E0EAF0E0E491E09327016A
:10036000C0E098CF109280001092810080918100AF
:1003700088608093810080918100816080938100FA
:10038000EEEBF0E0E491F0E0EE0FFF1FEC55FF4FD5
:1003900085919491E0EAF0E0E491E09326017ACF30
:1003A0001092B0001092B1008091B00082608093F2
:1003B000B0008091B10081608093B100EEEBF0E07D
:1003C000E491F0E0EE0FFF1FEC55FF4F8591949103
:1003D0009093250180932401E0EAF0E0E491E0931A
:1003E000230158CF60E072E18AE790E00E94960610
:1003F000BA01A9014150510961097109C130A1F542
:1004000080918100887F8160809381005093890072
:10041000409388008FEF9FEFDC0180932C01909335
:100420002D01A0932E01B0932F0180916F00826067
:1004300080936F0024CF4093B3008FEF9FEFDC01D8
:100440008093280190932901A0932A01B0932B0156
:100450008091700082608093700011CF8091B10014
:10046000887F892B8093B100C13081F2C23019F3AB
:10047000C11105CF47BD8FEF9FEFDC0180933001A5
:1004800090933101A0933201B093330180916E00BB
:10049000826080936E00F3CE8E50806480937C00E7
:1004A00080917A00806480937A0080917A0086FD42
:1004B000FCCF809178009091790008953FB7F8942F
:1004C0008091090190910A01A0910B01B0910C015A
:1004D00026B5A89B05C02F3F19F00196A11DB11D9F
:1004E0003FBFBA2FA92F982F8827BC01CD01620FDB
:1004F000711D811D911D42E0660F771F881F991F96
:100500004A95D1F708958F929F92AF92BF92CF9262
:10051000DF92EF92FF926B017C010E945E024B0121
:100520005C01C114D104E104F104B9F00E945E023F
:10053000681979098A099B09683E7340810591050C
:1005400080F321E0C21AD108E108F10888EE880E94
:1005500083E0981EA11CB11CE4CFFF90EF90DF90C8
:10056000CF90BF90AF909F908F9008951F920F9261
:100570000FB60F9211242F933F934F935F936F9376
:100580007F938F939F93AF93BF93EF93FF9380914C
:10059000280190912901A0912A01B0912B01892B6A
:1005A0008A2B8B2BD1F190912301E0912401F091C2
:1005B00025018081892780838091280190912901DC
:1005C000A0912A01B0912B01181619061A061B06D4
:1005D0009CF48091280190912901A0912A01B09169
:1005E0002B010197A109B10980932801909329015A
:1005F000A0932A01B0932B01FF91EF91BF91AF918E
:100600009F918F917F916F915F914F913F912F912A
:100610000F900FBE0F901F90189580910601E2EC8D
:10062000F0E0E4919FEF90930601E13051F030F05B
:10063000E23069F060E00E94D300DECF10926E00DD
:10064000F9CF90916F009D7F90936F00F3CF9091C1
:1006500070009D7F9093700091E09093B000909116
:10066000B100987F94609093B1001092B300E2CFF4
:100670001F920F920FB60F9211242F933F938F93D7
:100680009F93AF93BF9380910D0190910E01A09124
:100690000F01B09110013091080123E0230F2D3795
:1006A00058F50196A11DB11D2093080180930D01FD
:1006B00090930E01A0930F01B09310018091090156
:1006C00090910A01A0910B01B0910C010196A11D1E
:1006D000B11D8093090190930A01A0930B01B0937F
:1006E0000C01BF91AF919F918F913F912F910F90EE
:1006F0000FBE0F901F90189526E8230F0296A11D9C
:10070000B11DD2CF789484B5826084BD84B58160F8
:1007100084BD85B5826085BD85B5816085BD8091CC
:100720006E00816080936E00109281008091810044
:10073000826080938100809181008160809381003C
:10074000809180008160809380008091B1008460FE
:100750008093B1008091B00081608093B00080915F
:100760007A00846080937A0080917A00826080931E
:100770007A0080917A00816080937A0080917A007B
:10078000806880937A001092C10062E08DE00E9440
:10079000010162E08CE00E94010162E08BE00E94B6
:1007A000010162E08AE00E94010161E089E00E94AB
:1007B000010161E088E00E94010161E087E00E94A0
:1007C000010161E086E00E94010161E085E00E9494
:1007D000010161E084E00E94010161E083E00E9488
:1007E000010161E082E00E94010162E08EE00E946E
:1007F000010162E08FE00E94010161E080E10E945E
:10080000010161E081E10E94010184EF91E00E9419
:10081000320181E08093040110921301809315014D
:1008200080931201809301018093050161E086E0CD
:100830000E94D30061E082E00E94D30061E087E083
:100840000E94D30061E083E00E94D30061E089E070
:100850000E94D30061E085E00E94D30061E088E05F
:100860000E94D30061E084E00E94D30068E97AE34B
:1008700080E090E00E94830288EE93E00E943201C3
:100880001092020110920301109221011092200196
:1008900060E087E00E94D30060E083E00E94D30024
:1008A00060E089E00E94D30060E085E00E94D30010
:1008B00060E088E00E94D30060E084E00E94D30002
:1008C00068E97AE380E090E00E94830260E082E0E1
:1008D0000E94D30062E080E10E9401011092220197
:1008E0008EE00E944C02853691050CF453C181E0E4
:1008F00090E090931901809318018FE00E944C02C0
:10090000853691050CF44BC181E090E0909317017E
:10091000809316012FB7F89480910D0190910E01EC
:10092000A0910F01B09110012FBF80931A019093F5
:100930001B01A0931C01B0931D01D1E080E0C82EE3
:1009400080E0D82EC1E0EE24E394F12C90910501D3
:1009500080910401981709F427C1C09322012FB791
:10096000F89480910D0190910E01A0910F01B0912A
:1009700010012FBF40911A0150911B0160911C0181
:1009800070911D0184179507A607B70708F056C098
:1009900084EF91E00E94320161E080E10E94010158
:1009A00061E082E00E94D30060E085E00E94D30015
:1009B00060E089E00E94D30060E084E00E94D30000
:1009C00060E088E00E94D30060E083E00E94D300F2
:1009D00060E087E00E94D30068E97AE380E090E07D
:1009E0000E9483028CED95E00E94320161E085E077
:1009F0000E94D30061E089E00E94D30061E084E0BE
:100A00000E94D30061E088E00E94D30061E083E0AF
:100A10000E94D30061E087E00E94D30068E97AE396
:100A200080E090E00E94830260E082E00E94D300B8
:100A300062E080E10E940101C09322012FB7F89487
:100A400080910D0190910E01A0910F01B0911001C4
:100A50002FBF80931A0190931B01A0931C01B093A8
:100A60001D0180912201882309F442C061E082E0E7
:100A70000E94D30000910201602F89E00E94D30000
:100A8000602F85E00E94D30010912101612F87E043
:100A90000E94D300612F83E00E94D300612F81E187
:100AA0000E94D300B09003016B2D88E00E94D30018
:100AB0006B2D84E00E94D30061E080E10E9401017F
:100AC00068E97AE380E090E00E94830262E080E1DE
:100AD0000E94010160E082E00E94D3001093200197
:100AE0008091040180930501B0921F0100931E01C3
:100AF0008AE00E94AA00892B09F00CC180910101B3
:100B0000882339F0809105018D278093050110928B
:100B10000101B0900501B09204016B2D86E00E94A6
:100B2000D3008EE00E944C02853691050CF451C032
:100B3000F0921901E09218018FE00E944C02853674
:100B400091050CF44BC0F0921701E0921601009150
:100B5000180110911901BB2009F46DC0A090160175
:100B6000B0901701012B09F443C0AB2809F43BC036
:100B700080912101811110922101C0930301C09342
:100B80000201C0931501C114D10409F4DFCE0E9403
:100B90000000DCCE1092190110921801AECE109216
:100BA000170110921601B6CE90912101809120017B
:100BB0009813D3CE9091030180911F019813CDCE4D
:100BC0009091020180911E019813C7CE10922201CC
:100BD000C6CE1092190110921801AECF10921701D3
:100BE00010921601B4CFC093210110920301C7CF18
:100BF00061E089E00E94D30064E670E080E090E06C
:100C00000E94830260E089E00E94D30064E670E005
:100C100080E090E00E948302109202011092150180
:100C200080912101811110922101AB2809F4ABCFF1
:100C3000C0930301A8CF8BE00E94AA00892B09F082
:100C40006CC080911401882339F0809113018D27A5
:100C5000809313011092140180911301809321015C
:100C60008823A1F00130110561F4809102018823ED
:100C700041F080910301882309F485CF109203018C
:100C800082CF10922101109213017DCF8CE00E943F
:100C9000AA00892B09F044C080910001882339F013
:100CA000809112018D278093120110920001809192
:100CB0001201809303018DE00E94AA00892B99F50F
:100CC00080911101882339F0809115018D2780933F
:100CD0001501109211018091150180930201012BE1
:100CE00009F051CF882309F44ECF61E089E00E94DA
:100CF000D30064E670E080E090E00E94830260E050
:100D000089E00E94D30064E670E080E090E00E94F9
:100D1000830239CFC0930101FCCEC09314019CCF54
:100D2000C0930001C4CFC0931101D5CF052E97FB0E
:100D30001EF400940E94AD0657FD07D00E94B50630
:100D400007FC03D04EF40C94AD06509540953095B9
:100D500021953F4F4F4F5F4F089590958095709527
:100D600061957F4F8F4F9F4F0895A1E21A2EAA1BC6
:100D7000BB1BFD010DC0AA1FBB1FEE1FFF1FA2174B
:100D8000B307E407F50720F0A21BB30BE40BF50B48
:100D9000661F771F881F991F1A9469F760957095D1
:100DA000809590959B01AC01BD01CF010895F89409
:020DB000FFCF73
:080DB200010101010101FF0034
:107E0000112484B714BE81FFF0D085E080938100F7
:107E100082E08093C00088E18093C10086E0809377
:107E2000C20080E18093C4008EE0C9D0259A86E02C
:107E300020E33CEF91E0309385002093840096BBD3
:107E4000B09BFECF1D9AA8958150A9F7CC24DD24C4
:107E500088248394B5E0AB2EA1E19A2EF3E0BF2EE7
:107E6000A2D0813461F49FD0082FAFD0023811F036
:107E7000013811F484E001C083E08DD089C08234E0
:107E800011F484E103C0853419F485E0A6D080C0E4
:107E9000853579F488D0E82EFF2485D0082F10E0AE
:107EA000102F00270E291F29000F111F8ED06801E7
:107EB0006FC0863521F484E090D080E0DECF843638
:107EC00009F040C070D06FD0082F6DD080E0C81688
:107ED00080E7D80618F4F601B7BEE895C0E0D1E017
:107EE00062D089930C17E1F7F0E0CF16F0E7DF06D8
:107EF00018F0F601B7BEE89568D007B600FCFDCFD4
:107F0000A601A0E0B1E02C9130E011968C91119780
:107F100090E0982F8827822B932B1296FA010C0160
:107F200087BEE89511244E5F5F4FF1E0A038BF0790
:107F300051F7F601A7BEE89507B600FCFDCF97BE46
:107F4000E89526C08437B1F42ED02DD0F82E2BD052
:107F50003CD0F601EF2C8F010F5F1F4F84911BD097
:107F6000EA94F801C1F70894C11CD11CFA94CF0C13
:107F7000D11C0EC0853739F428D08EE10CD085E9AC
:107F80000AD08FE07ACF813511F488E018D01DD067
:107F900080E101D065CF982F8091C00085FFFCCF94
:107FA0009093C60008958091C00087FFFCCF809118
:107FB000C00084FD01C0A8958091C6000895E0E648
:107FC000F0E098E1908380830895EDDF803219F02E
:107FD00088E0F5DFFFCF84E1DECF1F93182FE3DFCA
:107FE0001150E9F7F2DF1F91089580E0E8DFEE27F6
:047FF000FF270994CA
:027FFE00040479
:0400000300007E007B
:00000001FF