:100000000C9462000C948A000C948A000C948A0070
:100010000C948A000C948A000C948A000C948A0038
:100020000C948A000C948A000C948A000C948A0028
:100030000C948A000C948A000C948A000C948A0018
:100040000C9405040C948A000C94D3030C94AD0317
:100050000C948A000C948A000C948A000C948A00F8
:100060000C948A000C948A000000000023002600F3
:10007000290000000000240027002A0000000000E2
:10008000250028002B0004040404040404040202D4
:100090000202020203030303030301020408102007
:1000A0004080010204081020010204081020000012
:1000B0000008000201000003040700000000000027
:1000C0000000BC0611241FBECFEFD8E0DEBFCDBFBD
:1000D00011E0A0E0B1E0E6E2FEE002C005900D9282
:1000E000A038B107D9F722E0A0E8B1E001C01D9225
:1000F000AD32B207E1F710E0C2E6D0E004C02197CC
:10010000FE010E940B07C136D107C9F70E944F04B8
:100110000C9411070C940000AF92BF92CF92DF9223
:10012000EF92FF920F931F93CF93DF936C017B01AC
:100130008B01040F151FEB015E01AE18BF08C0173D
:10014000D10759F06991D601ED91FC910190F081B0
:10015000E02DC6010995892B79F7C501DF91CF9173
:100160001F910F91FF90EF90DF90CF90BF90AF90D5
:100170000895FC01538D448D252F30E0842F90E0AD
:10018000821B930B541710F0CF9608950197089592
:10019000FC01918D828D981761F0A28DAE0FBF2F5B
:1001A000B11D5D968C91928D9F5F9F73928F90E0B1
:1001B00008958FEF9FEF0895FC01918D828D981720
:1001C00031F0828DE80FF11D858D90E008958FEF5D
:1001D0009FEF0895FC01918D228D892F90E0805C26
:1001E0009F4F821B91098F739927089580E991E0B1
:1001F0000E94EA0021E0892B09F420E0822F089573
:1002000080E090E0892B29F00E94F60081110C9487
:1002100000000895FC01A48DA80FB92FB11DA35AA9
:10022000BF4F2C91848D90E001968F739927848F16
:10023000A689B7892C93A089B1898C918370806439
:100240008C93938D848D981306C00288F389E02DDA
:1002500080818F7D80830895EF92FF920F931F938B
:10026000CF93DF93EC0181E0888F9B8D8C8D981369
:100270001AC0E889F989808185FF15C09FB7F89475
:10028000EE89FF896083E889F989808183708064C1
:1002900080839FBF81E090E0DF91CF911F910F910C
:1002A000FF90EF900895F62E0B8D10E00F5F1F4F1B
:1002B0000F731127E02E8C8D8E110CC00FB607FC2A
:1002C000FACFE889F989808185FFF5CFCE010E94B8
:1002D0000A01F1CFEB8DEC0FFD2FF11DE35AFF4F1B
:1002E000F0829FB7F8940B8FEA89FB898081806246
:1002F000CFCFCF93DF93EC01888D8823B9F0AA8903
:10030000BB89E889F9898C9185FD03C0808186FDD0
:100310000DC00FB607FCF7CF8C9185FFF2CF80811F
:1003200085FFEDCFCE010E940A01E9CFDF91CF9189
:100330000895833081F028F4813099F08230A9F05B
:1003400008958730A9F08830C9F08430B1F48091E5
:1003500080008F7D03C0809180008F778093800024
:10036000089584B58F7784BD089584B58F7DFBCFC4
:100370008091B0008F778093B00008958091B00095
:100380008F7DF9CF1F93CF93DF93282F30E0F901B2
:10039000E255FF4F8491F901E656FF4FD491F901E0
:1003A000EA57FF4FC491CC23A9F0162F81110E9468
:1003B0009901EC2FF0E0EE0FFF1FE458FF4FA591DD
:1003C000B4918FB7F894EC91111108C0D095DE2349
:1003D000DC938FBFDF91CF911F910895DE2BF8CF73
:1003E000CF93DF9390E0FC01E656FF4F24918A57AC
:1003F0009F4FFC0184918823D1F090E0880F991FD2
:10040000FC01EE58FF4FA591B491FC01E458FF4F59
:10041000C591D491623071F49FB7F8943C91822FCA
:10042000809583238C93E8812E2B28839FBFDF91B7
:10043000CF9108958FB7F894EC912E2B2C938FBF0A
:10044000F6CF8E3008F08E508770806480937C00E9
:1004500080917A00806480937A0080917A0086FD92
:10046000FCCF809178009091790008953FB7F8947F
:100470008091850190918601A0918701B0918801BA
:1004800026B5A89B05C02F3F19F00196A11DB11DEF
:100490003FBFBA2FA92F982F8827BC01CD01620F2B
:1004A000711D811D911D42E0660F771F881F991FE6
:1004B0004A95D1F708958F929F92AF92BF92CF92B3
:1004C000DF92EF92FF926B017C010E9436024B019A
:1004D0005C01C114D104E104F104B9F00E943602B8
:1004E000681979098A099B09683E7340810591055D
:1004F00080F321E0C21AD108E108F10888EE880EE5
:1005000083E0981EA11CB11CE4CFFF90EF90DF9018
:10051000CF90BF90AF909F908F900895FC01019075
:100520000020E9F73197AF01481B590BBC0180E966
:1005300091E00C948C008F929F92AF92BF920F9398
:100540001F93CF93DF93CDB7DEB7A1970FB6F89483
:10055000DEBF0FBECDBF19A2423008F44AE08E01C3
:100560000F5D1F4F842E912CB12CA12CA50194015D
:100570000E94E906E62FB901CA01EA30F4F4E05D11
:10058000D801EE938D01232B242B252B79F790E0B6
:1005900080E0109719F0CD010E948E02A1960FB64F
:1005A000F894DEBF0FBECDBFDF91CF911F910F91A9
:1005B000BF90AF909F908F900895E95CE1CF0C942D
:1005C0008E02CF92DF92EF92FF92CF93DF936C0176
:1005D000990FEE08FF08F7FE1FC06DE280E991E079
:1005E0000E942C01EC0166277727CB016C197D094D
:1005F0008E099F094AE00E949B02C80FD91F83E120
:1006000091E00E948E028C0F9D1FDF91CF91FF9091
:10061000EF90DF90CF9008954AE0C701B6010E94A5
:100620009B02EC01ECCF8F929F92AF92BF92DF9230
:10063000EF92FF920F931F93CF93DF93082FF62E25
:1006400068EB7BE080E090E00E945B02202F30E0CE
:10065000F901E255FF4F8491F901E656FF4FE4900E
:10066000F901EA57FF4F1491112309F473C0811166
:100670000E949901E12FF0E0EE0FFF1FE859FF4FB4
:10068000A591B491EC91EE2111E0E12C09F410E078
:10069000812F8170D82E86E191E00E94DF02812FA8
:1006A0009E2D0E94E1028BE291E00E94DF02602F0A
:1006B00070E090E080E04AE00E949B0283E191E0DC
:1006C0000E948E0284E391E00E94DF028F2D90E071
:1006D0000E94E102DF14D9F08FB7F8948090810175
:1006E00090908201A0908301B09084018FBFE401BB
:1006F0008FE391E00E94DF02C501B40188279927AA
:100700004AE00E949B0283E191E00E948E022FB793
:10071000F8948091810190918201A0918301B09120
:1007200084012FBF8C1B9D0BA109B1098536910552
:10073000A105B10510F0DF10D12C8D2DDF91CF91E7
:100740001F910F91FF90EF90DF90BF90AF909F901F
:100750008F90089510E0E12C9BCF1F920F920FB65F
:100760000F9211242F933F934F935F936F937F9337
:100770008F939F93AF93BF93EF93FF9380E991E0A3
:100780000E940A01FF91EF91BF91AF919F918F91CC
:100790007F916F915F914F913F912F910F900FBE7D
:1007A0000F901F9018951F920F920FB60F92112461
:1007B0002F938F939F93EF93FF93E091A001F0917C
:1007C000A1018081E091A601F091A70182FD1BC0EB
:1007D00090818091A9018F5F8F732091AA01821768
:1007E00041F0E091A901F0E0E057FE4F958F809332
:1007F000A901FF91EF919F918F912F910F900FBEC3
:100800000F901F9018958081F4CF1F920F920FB612
:100810000F9211242F933F938F939F93AF93BF9386
:100820008091810190918201A0918301B091840116
:100830003091800123E0230F2D3758F50196A11D3B
:10084000B11D209380018093810190938201A09338
:100850008301B09384018091850190918601A091DC
:100860008701B09188010196A11DB11D809385017A
:1008700090938601A0938701B0938801BF91AF91B7
:100880009F918F913F912F910F900FBE0F901F90CE
:10089000189526E8230F0296A11DB11DD2CF78949A
:1008A00084B5826084BD84B5816084BD85B5826075
:1008B00085BD85B5816085BD80916E008160809326
:1008C0006E0010928100809181008260809381008F
:1008D000809181008160809381008091800081609F
:1008E000809380008091B10084608093B1008091FA
:1008F000B00081608093B00080917A008460809322
:100900007A0080917A00826080937A0080917A00E8
:10091000816080937A0080917A00806880937A0069
:100920001092C10062E08DE00E94F00162E08CE074
:100930000E94F00162E08BE00E94F00162E08AE038
:100940000E94F00161E089E00E94F00161E088E02E
:100950000E94F00161E087E00E94F00161E086E022
:100960000E94F00161E085E00E94F00161E084E016
:100970000E94F00161E083E00E94F00161E082E00A
:100980000E94F00161E089E00E94C20161E088E01C
:100990000E94C20160E087E00E94C20161E086E03F
:1009A0000E94C20161E085E00E94C20161E084E032
:1009B0000E94C20160E083E00E94C20180E00E94C8
:1009C000210290938F0180938E01853691055CF012
:1009D00061E085E00E94C20161E089E00E94C201FD
:1009E00081E080938D0181E00E94210290938C012F
:1009F00080938B01853691050CF4A1C161E084E000
:100A00000E94C20161E088E00E94C20181E08093FF
:100A10008A0168EE73E080E090E00E945B0261E092
:100A200086E00E94C20160E082E00E94C201E09183
:100A3000A001F091A10182E08083E0919C01F091FE
:100A40009D011082E0919E01F0919F018FEC8083C7
:100A50001092A801E091A401F091A50186E08083A5
:100A6000E091A201F091A301808180618083E091F7
:100A7000A201F091A301808188608083E091A201AE
:100A8000F091A301808180688083E091A201F091C0
:100A9000A30180818F7D808381E08093000100E04D
:100AA00010E08CE491E00E94DF0290E080E00E9480
:100AB000E10285E591E00E94DF028091000190E073
:100AC0000E94E102609100018AE00E94130380937A
:100AD000000185E591E00E94DF028091000190E035
:100AE0000E94E10280910001882309F4B8C081E6E8
:100AF00091E00E948E0283E191E00E948E0280E0EC
:100B00000E94210290938F0180938E0186E691E0EE
:100B10000E94DF0280918E0190918F010E94E1027C
:100B20008FE491E00E94DF0280918D0190E00E94AD
:100B3000E10280918D0181110AC080918E01909116
:100B40008F01853691051CF081E080938D018091A5
:100B50008D01882349F080918E0190918F01843618
:100B6000910514F410928D0181E00E94210290936E
:100B70008C0180938B0186E791E00E94DF028091D7
:100B80008A0190E00E94E10281E791E00E94DF0289
:100B900080918B0190918C010E94E10280918A01E9
:100BA00081112AC080918B0190918C01853691052D
:100BB0001CF1C1E0C0938A0161E084E00E94C2019F
:100BC00061E088E00E94C20161E083E00E94C2010E
:100BD00061E087E00E94C201C093890161E082E088
:100BE0000E94C20168EE73E080E090E00E945B0228
:100BF00060E082E00E94C20180918A01882349F16D
:100C000080918B0190918C018436910514F510929E
:100C10008A0160E084E00E94C20160E088E00E94F6
:100C2000C20160E083E00E94C20160E087E00E94B0
:100C3000C2011092890161E082E00E94C20168EE67
:100C400073E080E090E00E945B0260E082E00E943E
:100C5000C20168E572E080E090E00E945B02809152
:100C60000001811157C08BE791E00E948E0283E161
:100C700091E00E948E0260918D018DE00E9413032D
:100C800080938D0181116CC061E085E00E94C201FA
:100C900061E089E00E94C20161E082E00E94C2013D
:100CA00068EE73E080E090E00E945B0260E082E02A
:100CB0000E94C20160918A018CE00E94130380931C
:100CC0008A01811116C061E084E00E94C20161E0E6
:100CD00088E00E94C20161E082E00E94C20168EEE9
:100CE00073E080E090E00E945B0260E082E00E949E
:100CF000C201609189018BE00E94130380938901F6
:100D0000811134C061E083E00E94C20161E087E0AC
:100D10000E94C2018091000161E0811101C060E088
:100D200086E00E94C2010115110509F4BACE0E94A5
:100D3000F600882309F4B5CE0E940000B2CE80915F
:100D40008D01882309F465CE61E083E00E94C20131
:100D500061E087E00E94C20181E08093890159CE61
:100D600060E085E00E94C20160E093CF60E083E034
:100D70000E94C20160E0CBCFE0E9F1E01382128271
:100D800088EE93E0A0E0B0E084839583A683B783E8
:100D900085E091E09183808385EC90E0958784875E
:100DA00084EC90E09787868780EC90E0918B808B35
:100DB00081EC90E0938B828B82EC90E0958B848B1E
:100DC00086EC90E0978B868B118E128E138E148E8C
:100DD0000895A1E21A2EAA1BBB1BFD010DC0AA1F7C
:100DE000BB1FEE1FFF1FA217B307E407F50720F094
:100DF000A21BB30BE40BF50B661F771F881F991F0F
:100E00001A9469F760957095809590959B01AC0157
:100E1000BD01CF010895EE0FFF1F0590F491E02D65
:060E20000994F894FFCFD5
:100E260001000000002C018C00B9007901EA00C81D
:100E360000DC000D0A007072657373427574746F7E
:100E46006E20537461747573203D006E4275747420
:100E56006F6E3D004C61737453746174653D004C54
:100E660061737444656254696D653D0053656E43F4
:100E76006F6C643D004175746F5374617475733D96
:100E86000048494748005072657373436F6C643D70
:100E9600005072657373486F743D004C4F570000E5
:00000001FF
